:020000040800F2
:10000000206901208102000867490008C9430008EF
:10001000054700082D1B0008CD84000800000000E3
:10002000000000000000000000000000C101000806
:10003000E9380008000000001D0200086D5D00089E
:100040009B0200089B0200089B0200089B0200081C
:100050009B0200089B0200089B0200089B0200080C
:10006000ED3800089B0200089B0200089B02000874
:100070009B0200089B0200089B0200089B020008EC
:10008000853400089B0200089B020008851C0008BC
:10009000491C00089B0200089B0200089B02000804
:1000A0009B0200089B0200089B0200089B020008BC
:1000B0009B0200089B0200089B0200089B020008AC
:1000C0009B0200089B0200089B0200089B0200089C
:1000D0009B020008816200085D6300084564000817
:1000E0009B0200089B0200089B0200089B0200087C
:1000F0009B0200089B0200089B0200089B0200086C
:100100009B0200089B0200089B0200089B0200085B
:100110009B0200089B020008F15D00089B0200089A
:100120009B0200089B0200089B0200089B0200083B
:100130009B0200089B0200089B020008F11D0008BA
:10014000C11D00089B0200089B020008A14C00088A
:100150009B0200089B0200089B020008CD64000877
:100160009B0200089B0200089B0200089B020008FB
:100170009B0200089B0200089B0200080000000090
:100180009B0200089B02000871610008F9610008E9
:100190009B0200089B0200089B0200089B020008CB
:1001A00000000000000000009B020008DFF80CD0F7
:1001B00001F05AF80048004751B0000820690120BA
:1001C0002C4B19680868B0E8F04F80F30988BFF33A
:1001D0006F8F4FF0000080F311887047000000001F
:1001E00008480068006880F308884FF0000080F33A
:1001F000148862B661B6BFF34F8FBFF36F8F00DF15
:1002000000BF00BF08ED00E0DFF80C00016841F41A
:1002100070010160704700BF88ED00E0EFF30980D6
:10022000BFF36F8F134B1A681EF0100F08BF20ED3D
:10023000108A20E9F04F106009B44FF0500080F3AD
:100240001188BFF34F8FBFF36F8F0FF041F84FF05E
:10025000000080F3118809BC19680868B0E8F04F05
:100260001EF0100F08BFB0EC108A80F30988BFF3AE
:100270006F8F7047F0050020EFF305807047000096
:100280000648804706480047FEE7FEE7FEE7FEE730
:10029000FEE7FEE7FEE7FEE7FEE7FEE7895D000812
:1002A000AD01000810B5044600BF00BF00BF00BF8D
:1002B000002CFDD000BF00BF00BF0029FDD000BF53
:1002C00000BF00BF002AFDD000BF00BF00BF002B51
:1002D000FDD000BF72B6216002FB0310401E6060BB
:1002E000A3600020E06022746161A16162B6002019
:1002F00010BD2DE9F04104460D460026002700BF41
:1003000000BF002CFDD000BF00BF00BF002DFDD0FE
:1003100000BF1C200AF0ACFE064616B90020BDE85E
:10032000F08104FB05F00AF0A3FE07460FB9002098
:10033000F5E72B46224639463046FFF7B3FF3046F5
:10034000EDE710B5044600BF00BF002CFDD000BF94
:1003500000BF00BF20680028FCD000BF206809F063
:10036000B5FE204609F0B2FE10BD034600BF00BF37
:1003700000BF00BF002BFDD000BF00BF00BF0029A1
:10038000FDD000BF00BF00BF002AFDD000BF72B685
:1003900019608818401E58609A600020D860196162
:1003A000596162B60020704770B5044600250026EA
:1003B00000BF00BF002CFDD000BF18200AF058FE7F
:1003C00005460DB9002070BD20460AF051FE0646D4
:1003D0000EB90020F7E7224631462846FFF7C5FF51
:1003E0002846F0E710B5044600BF00BF002CFDD042
:1003F00000BF00BF00BF20680028FCD000BF2068FD
:1004000009F064FE204609F061FE10BD30B50246D9
:1004100000230C4600BF00BF00BF00BF002AFDD074
:1004200000BF00BF00BF0029FDD000BF906810B919
:100430004FF0FF3030BD002310E055689069A842AE
:1004400001D91068906114F8010B9569287072B693
:100450009069401C906162B6581CC3B2107C9842EF
:10046000EBDC72B69068401E9060D068401CD06093
:1004700062B60020DEE7024600BF00BF00BF00BF3B
:10048000002AFDD000BF906810B94FF0FF307047D0
:1004900072B650695368984201D91068506150692A
:1004A00001705069401C50619068401E9060D06897
:1004B000401CD06062B60020E9E770B503460C46E8
:1004C000002500BF00BF00BF00BF002BFDD000BF54
:1004D000986810B94FF0FF3070BD002119E098689E
:1004E00010B94FF0FF3516E072B65E685869B04239
:1004F00001D918685861605C5E6930705869401CA9
:1005000058619868401E9860D868401CD86062B6F0
:10051000491C9142E3D300BF2846DDE730B50246CF
:1005200000230C4600BF00BF00BF00BF002AFDD063
:1005300000BF00BF00BF0029FDD000BFD06810B9C8
:100540004FF0FF3030BD002310E055685069A842DD
:1005500001D9106850615069007804F8010B72B637
:100560005069401C506162B6581CC3B2107C98425E
:10057000EBDC72B69068401C9060D068401ED06082
:1005800062B60020DEE70146002000BF00BF00BFCA
:1005900000BF0029FDD000BF72B60A694B689A42BD
:1005A00001D90A680A610A6910780A69521C0A614D
:1005B0008A68521C8A60CA68521ECA6062B6704756
:1005C00070B5024600230C4600BF00BF00BF00BF4D
:1005D000002AFDD000BF00BF00BF0029FDD000BF32
:1005E000D06810B94FF0FF3070BD72B6167CD0687D
:1005F000401E556906FB00501568451BD2E9006096
:10060000801B401CB5FBF0F600FB16501568284413
:100610005061D2E90250401E284490600120D06011
:1006200062B6002310E055685069A84201D91068ED
:1006300050615069007804F8010B72B65069401C93
:10064000506162B6581CC3B2107C9842EBDC72B6A3
:100650009068401C9060D068401ED06062B6002058
:10066000C2E710B50146002000BF00BF00BF00BFB9
:100670000029FDD000BF72B6D1E903321A44521EE0
:100680000B68D31AD1E90042121B521CB3FBF2F4DF
:1006900002FB14320B681A440A610A691078D1E926
:1006A00002231A448A600022CA6062B610BD70B587
:1006B00003460C46154600222E46002100BF00BF0F
:1006C000002BFDD000BF00BF00BF002DFDD000BF3C
:1006D000D868A04202D84FF0FF3070BD596900229F
:1006E00006E05868884200D21968491C501CC2B202
:1006F000187C60439042F4DC002209E0586888428C
:1007000000D21968087806F8010B491C501CC2B2C7
:10071000187C9042F2DC0020DFE710B502460B4661
:100720000024002100BF00BF002AFDD000BF1169D6
:10073000002406E05068884200D21168491C601C01
:10074000C4B29C42F6DB087810BD014600BF00BF72
:100750000029FDD000BFC86808B9012070470020FB
:10076000FCE7014600BF00BF0029FDD000BFC868FC
:1007700008B9012070470020FCE7014600BF00BF18
:100780000029FDD000BF886808B90120704700200B
:10079000FCE7014600BF00BF0029FDD000BF88680C
:1007A00008B9012070470020FCE7014600BF00BFE8
:1007B0000029FDD000BFC8687047014600BF00BFD8
:1007C0000029FDD000BFC8687047014600BF00BFC8
:1007D0000029FDD000BF88687047014600BF00BFF8
:1007E0000029FDD000BF88687047014600BF00BFE8
:1007F00000BF00BF0029FDD000BF72B6D1E90020C4
:10080000801A0A7C90FBF2F088600020C8600868BB
:1008100048610868886162B600207047014600BFE1
:1008200000BF00BF00BF0029FDD000BF72B6D1E9F4
:100830000020801A88600020C86008680861086885
:10084000486162B60020704740EA01039B0703D06D
:1008500009E008C9121F08C0042AFAD203E011F8FF
:10086000013B00F8013B521EF9D27047D2B201E0C1
:1008700000F8012B491EFBD270470022F6E710B5A5
:1008800013460A4604461946FFF7F0FF204610BDFE
:10089000CAB2401E10F8011F8A4202D00029F9D1C5
:1008A00000207047421C10F8011B0029FBD1801A60
:1008B0007047034611F8012B00F8012B002AF9D1EB
:1008C000184670470FB400B58DB010A909900B9071
:1008D00000914FF0FF300A9000200C9005480690E0
:1008E000054807906A4609A80F9900F091FB0DB0E2
:1008F0005DF814FB2D1000084B1000082DE9FF5F78
:100900001D464FF0FF3BD5E9014691465F464FF04B
:100910000008A9697F1C01988847296A8246884790
:100920000028F6D1BAF1FF3F0CD024F4C064002EA9
:1009300019DD600614D5BAF12B0F09D0BAF12D0FCD
:100940000ED103E0584604B0BDE8F09F44F4806443
:10095000A9697F1C01988847761E8246002E02DD19
:10096000BAF1300F03D0B9F1000F26D032E0A969F7
:10097000761E44F400747F1C019888478246002E3E
:1009800005DDBAF1780F06D0BAF1580F03D0B9F1EE
:10099000000F10D01EE0B9F1000F02D0B9F1100F16
:1009A00018D1A969761E24F400747F1C0198884729
:1009B0008246102002E0082000E00A20814609E07B
:1009C00008FB0908A969761E44F400747F1C01988D
:1009D00088478246002E05DD4946504600F004FB5C
:1009E0000028EDDAE96901988847A00502D46FF084
:1009F0000100A8E7E00725D1600613D5600502D500
:100A0000C8F1000000E0404629680A1D2A60096814
:100A1000220501D5087015E0220701D5088011E0F4
:100A200008600FE02868011D29600068210502D5D3
:100A300080F8008006E0210702D5A0F8008001E0E0
:100A4000C0F8008038467EE72DE9FF5FD2E901A7B4
:100A50004FF00008916999461446DDF838B04646D3
:100A600001988847054659EA0B0005D009E0A169BD
:100A7000761C019888470546216A28468847002841
:100A8000F5D1681C03D05FEACA7005D015E04FF0BD
:100A9000FF3004B0BDE8F09F2068011D2160D0F850
:100AA00000800AE05FEACA7001D108F8015BA16921
:100AB000761C7F1E019888470546002F1ADD681CAA
:100AC00018D0B9F1000F0DD0E81705EBD060421136
:100AD00020F01F0059F822102A1A012090400142EC
:100AE000E0D107E0BBF1000FDCD1216A284688473E
:100AF0000028D7D0E16901988847BBF1000F07D1E2
:100B0000002E05DD5FEACA7002D1002188F80010CE
:100B1000A068B84203DDBBF1000F03D017B16FF03E
:100B20000100B6E73046B4E72DE9FE4F804681EA82
:100B30000300C00F0C46009021F0004123F0004557
:100B4000B8EB0200A94105D24046214690461C461A
:100B50000B46024623F00040104347D0270DC7F351
:100B60000A00C3F30A510290401A019040286BDA40
:100B7000C3F3130040F4801B0098924620B1002379
:100B8000D2EB030A63EB0B0B01985946C0F140020C
:100B9000504600F008FA06460D4650465946019A5E
:100BA00000F010FA10EB08006141002487EA1152AE
:100BB00084EAE7731A4340D0009A62B3019A012A8B
:100BC0004FEA075215DC001B61EB02014FF00042B7
:100BD00002EA0752CDE90042001C41F5801132467D
:100BE0002B4600F089FA03B0BDE8F08F404621465D
:100BF000F9E7001B61EB0201001C41F580130018AE
:100C00005B412018A2F5001747EB030140EAD570BD
:100C1000B6196D4111E06D084FEA360645EAC07518
:100C20004FEA0752001B61EB0201001C41F58011E5
:100C300049084FEA30000019514132462B4603B0B3
:100C4000BDE8F04F00F049BA0098012240000023AF
:100C5000D0EB020263EBE073009821464FEAE074A8
:100C6000B8EB000061EB0401E9E783F000435BE7C8
:100C700081F0004158E72DE9FE4F81EA030404F0BA
:100C8000004421F0004100944FF0000B23F000439A
:100C900050EA01045ED052EA03045BD0C3F30A5465
:100CA000C1F30A552C44A4F2F3340194A0FB02547E
:100CB000C1F3130141F48011C3F3130343F4801310
:100CC00001FB024400FB034E840A970A44EA815464
:100CD00047EA8357A4FB076802958D0A05FB078541
:100CE0004FEA932C04FB0C542705029D4FEA06584B
:100CF00047EA1637B5EB08056EEB070C870E920E28
:100D000047EA811742EA8312A7FB0201B6EB0B0107
:100D100064EB00042B0D43EA0C335E1844EB1C50CB
:100D2000DA465146E7FB0201C5F313044FEA0B33E1
:100D300043EA14534FEA0432019C43EA0603A4F148
:100D40000C040294009CCDE900B400F0D5F903B086
:100D5000BDE8F08F00200146F9E72DE9F04D81EA6A
:100D6000030404F0004B21F0004514464FF0000A44
:100D700023F0004150EA050220D054EA01021DD0C0
:100D8000C5F30A570246C5F31303C1F31300C1F3B9
:100D90000A5640F4801543F48013A7EB0608101B95
:100DA000D64608F2FD3873EB050002D308F10108BE
:100DB00001E092185B41B8F1000F03DA0020014610
:100DC000BDE8F08D00204FF48011064684460EE009
:100DD000171B73EB050705D3121B63EB05030643D3
:100DE0004CEA010C49084FEA300092185B4150EA86
:100DF0000107EDD152EA030012D082EA040083EA2F
:100E00000501084305D0101BAB4106D20122002387
:100E100006E000224FF0004302E06FF001025310A1
:100E20001AEB06004CEB085110EB0A0041EB0B01EA
:100E3000BDE8F04D00F051B90EB5C10F80EAE07089
:100E40000844CA07002140F233438DE80E000A46E9
:100E50000B4600F051F903B000BD00F0004230F045
:100E600000400AD0C10D01F56071C0F3160042EADE
:100E70000151C208400711437047002001467047E6
:100E800030B5041E71F1000404DB4FF00044404211
:100E900064EB0101141E73F1000405DB1C464FF0E6
:100EA0000043524263EB04038B4208BF824230BDD1
:100EB00030B5041E71F1000404DB4FF000444042E1
:100EC00064EB0101141E73F1000405DB1C464FF0B6
:100ED0000043524263EB0403994208BF904230BD85
:100EE00001F0004330B421F0004150EA010206D085
:100EF0000A0DA2F56072C1F31301002A02DC30BCB6
:100F000000207047440F44EAC104C100E01830BC1F
:100F100000EBC25000F0AAB830B50B4601460020E5
:100F20002022012409E021FA02F59D4205D303FAAB
:100F300002F5491B04FA02F52844151EA2F101022C
:100F4000F1DC30BD2DE9F05F0546002092469B465E
:100F500088460646814640241BE0284641464746CF
:100F6000224600F093F953465A46C01A914110D3D5
:100F700011461846224600F016F82D1A67EB0108B4
:100F80004F4622460120002100F00DF817EB000922
:100F90004E41201EA4F10104DFDC484631462A46BA
:100FA0004346BDE8F09F202A04DB203A00FA02F114
:100FB000002070479140C2F1200320FA03F3194347
:100FC00090407047202A06DBCB17203A41FA02F006
:100FD00043EAE07306E041FA02F3D040C2F1200296
:100FE00091400843194670473A2800D2303820F023
:100FF0002002412A01D3A2F13700884201D34FF0E9
:10100000FF3070470268114413780160184670473A
:10101000D1600449516104491162002111611146F6
:1010200000F04AB905100008AD120008426842B14C
:10103000016811F8013B23B1521EC0E900121846A5
:1010400070470121C160881E704742685AB1C36869
:10105000016843B983688B4205D0491E521CC0E920
:101060000012002070474FF0FF3070470029A8BFE2
:101070007047401C490008BF20F00100704710B4C1
:10108000B0FA80FC00FA0CF050EA010404BF10BC76
:10109000704749B1CCF1200421FA04F411FA0CF1A3
:1010A00018BF012121430843A3EB0C01CB1D4FEADC
:1010B00000614FEA102042BF002010BC704700EBD7
:1010C000C35010440029A4BF10BC7047401C490005
:1010D00008BF20F0010010BC704710B5141E73F15A
:1010E000000408DA401C41F1000192185B411A43E8
:1010F00001D120F0010010BD2DE9F04D92469B4634
:1011000011B1B1FA81F202E0B0FA80F220329046D9
:10111000FFF749FF04460F4640EA0A0041EA0B0187
:1011200053465A46084313D0114653EA010019D0DA
:10113000C8F14002504600F0A9F805460E46504658
:1011400059464246FFF72FFF084305D0012004E02F
:1011500020463946BDE8F08D0020054346EAE0769A
:101160002C4337430A986305E40AA0EB08000022E9
:10117000FD0A44EA47540A3002D500200146E9E757
:10118000010510196941DDE9084500196941BDE80B
:10119000F04DA2E72DE9F04D00231A461B1A8A41B3
:1011A00003DB00200146BDE8F08DC1F30A52C1F314
:1011B000130141F480154FF0000BD10702D1001844
:1011C0006D41521E0027044640F2FF11384601EBE4
:1011D000620A3E468046024600204FF4801100F02D
:1011E00055F8C2197141BB1846EB0100B4EB030C72
:1011F00075EB000C04D3E41A65EB000517460E46A8
:10120000241908F101006D4180463428E3DDF91905
:1012100046EB0600091BA84103D24FF0FF321346EC
:1012200001E0002213461BEB070046EB0A51BDE824
:10123000F04DFFF752BFC1F30A52C1F3130140F260
:10124000FF3341F480119A4202DA002001467047D0
:1012500040F233439A42A2F2334202DC524200F09F
:1012600015B8FFF7A0BE0000064C074D06E0E06889
:1012700040F0010394E8070098471034AC42F6D3DD
:10128000FEF798FF280E0108480E0108202A04DB0B
:10129000203A21FA02F00021704721FA02F3D040EF
:1012A000C2F120029140084319467047C0B24FF482
:1012B000F05100F097B900002DE9F34F8BB04FF0DB
:1012C000000801F10C000C464FF0010B46460DF1F1
:1012D000080A01906269012101989047051E2DD0EE
:1012E000252D2CD0216A8847C0B16269012101985F
:1012F0009047216A88470028F7D1411E626901980A
:10130000904700E0761CA1690B988847216A8847BE
:101310000028F7D1E1690B988847DBE7A1690B98B2
:1013200088470746A84201D1761CD3E7E1690B98AC
:1013300088477F1C02D1B8F1000F6FD046E100272B
:1013400062693D463946019890472A2804D162696E
:101350000121019890470125DFF8849262690121FB
:1013600001989047A0F130010A290AD24F45E5DCE7
:1013700007EB870100EB4107303FDFD445F0100554
:10138000ECE7E90601D46FF000476C280AD04C283E
:1013900014D0682815D06A280DD074281CD07A285B
:1013A0001AD01DE062690121019890476C2802D093
:1013B00045F0040514E045F002050DE045F0200578
:1013C0000AE06269012101989047682802D045F03F
:1013D000080505E045F40065626901210198904720
:1013E000C4E9015765283DD019DC58287AD00CDCB7
:1013F000452837D004DC252826D0412831D131E0DA
:1014000046282FD047282CD12CE05B2877D06128A4
:1014100028D063287CD0642823D15AE0D0E06F28FC
:1014200048D008DC66281DD067281BD0692821D049
:101430006E2816D127E0702845D0732868D075280B
:1014400047D078280DD14DE0A1690B988847054613
:1014500025283FF469AFE1690B9888476D1C3FF47C
:101460006AAFB3E023466A466FF001000B99AFF311
:1014700000809EE045F040006060A80723464FF0E2
:10148000000236D43EE0E8077FF447AF2068011D34
:1014900021600068290501D506701BE7290701D5E1
:1014A000068017E7A90703D5F117C0E9006111E726
:1014B00006600FE745F040006060A80723464FF044
:1014C000080216D41EE040F60E0125EA0100606015
:1014D00016E045F040006060A80723464FF00A027E
:1014E00007D40FE045F040006060A80708D5234608
:1014F00010226FF001000B99AFF3008059E007E074
:10150000234610226FF001000B99FFF7F7F950E026
:101510004FF000094F464B46632802D05B2806D0A7
:1015200040E0E80601D40120A06001273AE06269AA
:101530000121019890475E2805D14FF001096269A9
:10154000494601989047216939B900210A46534616
:1015500043F82120491C0829FADBB0B3216969B995
:10156000C11700EBD16253110AEB830122F01F0275
:10157000821A01200B68904003430B6062690121CD
:10158000019890475D28E8D1B9F1000F09D00020FB
:10159000514651F82020D24341F82020401C082811
:1015A000F7DB02AB224600976FF001000B99FFF7C3
:1015B0004BFA00280CDA401C08D1BBF1000F05D013
:1015C0004FF0FF300DB0BDE8F08FFFE74046F9E780
:1015D000E90701D108F1010806444FF0000B79E654
:1015E000CCCCCC0C7F2801D9002208E0064A02EBC3
:1015F0005002C007127800D1120902F00F02012038
:101600009040084070470000000D010870B58C182C
:1016100010F8015B15F0070301D110F8013B2A1106
:1016200006D110F8012B03E010F8016B01F8016BF3
:101630005B1EF9D12B0705D40023521E0DD401F8EF
:10164000013BFAE710F8013BCB1A921C03E013F8B8
:10165000015B01F8015B521EF9D5A142D8D30020ED
:1016600070BDCA430260704721B1826842F0010236
:10167000826003E0826822F001028260704700000D
:101680000021084A1168084A1140D0E900231A4392
:1016900083681A43C3681A431143044AC2F8041307
:1016A0007047000004230140E030FCFF00200140AF
:1016B0000146C86C80B270470246002013680B4098
:1016C0000BB1012000E000207047000030B5024659
:1016D000002000235068104C20400D790C6844EA2B
:1016E00005242043506090680C4C2040D1E90354FD
:1016F0002C438D682C434D7944EA45042043906087
:10170000D06A20F470000C7D641EE4B2234340EAEA
:101710000350D06230BD0000FFFEFFFCFDF7FFC0AC
:10172000F0B504460D4600200021092D11DDE068CA
:10173000A5F10A0606EB4607072606FA07F18843D5
:10174000A5F10A0606EB460603FA06F10843E06037
:101750000CE0206905EB4507072606FA07F18843E8
:1017600005EB450603FA06F108432061072A0FDA64
:10177000606B561E06EB86071F2606FA07F18843A4
:10178000561E06EB860605FA06F10843606322E062
:101790000D2A0FDA206BD61F06EB86071F2606FAE6
:1017A00007F18843D61F06EB860605FA06F10843C3
:1017B000206310E0E06AA2F10D0606EB86071F2603
:1017C00006FA07F18843A2F10D0606EB860605FA34
:1017D00006F10843E062F0BD816841F0804181601C
:1017E0007047000038B10849096841F40001074A10
:1017F000C2F8041306E00449096821F40001034A11
:10180000C2F8041370470000042301400020014087
:1018100000B58BB00121402003F016FB0121802090
:1018200003F0F2FA092206211F4802F049FB40208A
:10183000099002208DF8280003208DF8290000204F
:101840008DF82A0001208DF82B0009A9164802F016
:10185000EFFA5320ADF818000020ADF81A0001206F
:1018600007900020ADF8200006A9104804F092FB74
:101870006020ADF804000120ADF806000020ADF8AE
:10188000100001A9094804F039FB0821074804F0B9
:1018900073FB0121054804F0EDFA0121034804F02F
:1018A000FBFA0BB000BD0000001C02400018004015
:1018B00010B5FFF7ADFF10BD10B500F035F803F01F
:1018C0005FFD09F0A9FD09F085F902F0F9FD01F0CD
:1018D00061FF02F02FFE02F0C7FE03F071FA02F082
:1018E00005FFFFF7E5FF02F017FB00F01BFB01F01F
:1018F00043F801F011F8094800680949B0FBF1F01C
:10190000C4B2084841682046884703F095FC0AF0B5
:1019100061F803F0F7F809F08FFC10BD000000201B
:1019200040420F00B806002010B54FF4407003F09D
:1019300057F8A82008F06EFA0CF08AF810BD0000E5
:1019400000B589B05548006808B1012000E00020CA
:10195000534908705348007828B19FED530A534803
:1019600080ED000A04E09FED520A504880ED000A25
:10197000012101A802F0F2FA01A80FC8CDE907235E
:10198000CDE90501BDF91C0000EE100AB8EEC00A51
:10199000464880ED010A816C8847444890ED0D0A65
:1019A000BDEEC00A10EE100A01B2012003F0CCFE19
:1019B00040480078D8B140480078404200EE100A14
:1019C000B8EEC00ADFED3D0A20EE200A3C4880ED6B
:1019D000000A3948007800EE100AB8EE400ADFED40
:1019E000370A20EE200A374880ED000A09E09FED13
:1019F000300A334880ED000A9FED2D0A314880ED12
:101A0000000A022101A802F0A9FA01A80FC8CDE935
:101A10000723CDE90501BDF91C0000EE100AB8EE60
:101A2000C00A274880ED010A032101A802F096FAB6
:101A300001A80FC8CDE90723CDE90501BDF91C00B8
:101A400000EE100AB8EEC00A1E4880ED010A1C48DC
:101A5000816C88471B48816C8847194890ED0D0AB6
:101A6000BDEEC00A10EE100A01B2022003F06CFEB7
:101A7000144890ED0D0ABDEEC00A10EE100A01B236
:101A8000032003F061FE074800780F4908700448FE
:101A900000780E49087009B000BD00000082424283
:101AA000FC030020E403002000008746D40200204D
:101AB00000000000E2030020F0030020236B8843B5
:101AC0003402002084020020FB030020FD030020DC
:101AD00000B589B09FED130A134880ED000A062176
:101AE00001A802F03BFA01A80FC8CDE90723CDE910
:101AF0000501BDF91C0000EE100AB8EEC00A0A4844
:101B000080ED010A816C8847074890ED0D0ABDEE13
:101B1000C00A10EE100A01B2062003F015FE09B04B
:101B200000BD00000000B4C3E401002000BFFEE7D8
:101B300000B58BB00121082003F066F901214806A9
:101B400003F082F9092200213D4802F0B9F9092287
:101B500001213B4802F0B4F90320029000208DF8E7
:101B60000E0003208DF80D0002208DF80C0002A954
:101B7000334802F05DF914208DF8040001208DF83F
:101B800005008DF806008DF8070001A802F0ECFEB4
:101B900013208DF8040000208DF8050001208DF839
:101BA00006008DF8070001A802F0DEFE254800F0CF
:101BB0009DF908A800F096FD00208DF826008DF80C
:101BC00027008DF828008DF829008DF82A000120C3
:101BD0008DF82B0000208DF822008DF823000820BE
:101BE0008DF8240003208DF82500ADF8200008A909
:101BF000144800F062FB00208DF81A008DF81B00DD
:101C000001208DF81C000020ADF81000ADF8120086
:101C1000ADF81400ADF81600ADF8180001208DF8ED
:101C20001D0004A800F0BAF901220221054800F0C5
:101C30003BFB01221146034800F036FB0BB000BD10
:101C4000000C02400064004000B585B002210B4842
:101C500000F028FA80B10421084800F0F3F80849A0
:101C6000064800F0D3F86A460021044800F0C2FCA0
:101C70000121684607F09EFF05B000BD00640040EA
:101C80000800003210B50121044800F00BFA18B129
:101C90000121024800F0D6F810BD000000640040A9
:101CA00000B58BB00121022003F0AEF801214806F7
:101CB00003F0CAF80121880603F0C6F809220C21B6
:101CC0003D4802F0FDF809220D213B4802F0F8F8EA
:101CD0004FF44050029002208DF80C0002A93648C3
:101CE00002F0A6F840208DF8040002208DF80500CF
:101CF00001208DF806008DF8070001A802F034FEDF
:101D00003F208DF8040001208DF805008DF80600B5
:101D10008DF8070001A802F027FE284800F0E6F839
:101D200008A800F0DFFC00208DF826008DF82700C1
:101D30008DF828008DF829008DF82A0001208DF8F3
:101D40002B0000208DF822008DF8230008208DF84C
:101D5000240003208DF82500ADF8200008A91748BD
:101D600000F0ABFA0E208DF81A0000208DF81B0051
:101D700001208DF81C000020ADF81000ADF8120015
:101D8000ADF814004FF48060ADF816000020ADF8F7
:101D9000180001208DF81D0004A800F0FFF80122B2
:101DA0000221064800F080FA01221146034800F0A3
:101DB0007BFA0BB000BD0000000402400068004048
:101DC00000B585B00221094800F06CF960B102212C
:101DD000064800F037F86A460021044800F00AFC83
:101DE0000221684607F0E6FE05B000BD006800402D
:101DF00010B50121044800F055F918B1012102483D
:101E000000F020F810BD00000068004000220C4BDC
:101E1000994202D10023836111E0C1F3130201F062
:101E200000730BB1C2600AE001F080630BB1026184
:101E300005E001F000630BB1826000E04260704792
:101E40007000F030B1F5007F3AD00FDC202928D0A7
:101E500006DC01291CD004291DD0082940D11DE031
:101E6000402921D0B1F5807F3AD126E0B1F5004F6D
:101E700031D006DCB1F5806F25D0B1F5006F2FD1E0
:101E800024E0B1F5803F12D0B1F5003F28D111E038
:101E9000154A826025E00822C26022E01022C2605A
:101EA0001FE0082202611CE01022026119E00822F2
:101EB000426016E01022426013E00422426010E00B
:101EC000042242600DE0042242600AE000228261A6
:101ED0000422426005E0002282610422426000E0A8
:101EE00000BF00BF704700000101010010B50446AB
:101EF0000B48844209D10121480602F0B5FF0021B8
:101F00004FF0007002F0B0FF08E00121880602F0F7
:101F1000ABFF00214FF0806002F0A6FF10BD000073
:101F20000064004008B541F65C4002230422002111
:101F30000090104600F04CFA40F2AA50022303220F
:101F400019460090052000F043FA002002230122E8
:101F500011460090062000F03BFA002001231A46AB
:101F600019460090184600F033FA0020012302229F
:101F700011460090104600F02BFA002001230222A7
:101F800003210090084600F023FA00F01BF900F04E
:101F900059FCFFF7CDFDFFF783FE08BD10B500210A
:101FA000837A012202FA03F13D4A126842F00102EB
:101FB0003B4B1A603A4A1C3212688A43384B1C3336
:101FC0001A60027BCAB9364A0C3212688A43344B13
:101FD0000C331A604288C38842EA0343304A4032D5
:101FE000847A42F834300288838842EA03432C4AD8
:101FF0004032847A02EBC4025360027B012A19D179
:10200000274A0C3212680A43254B0C331A60428867
:10201000038842EA0343224A4032847A42F8343049
:10202000C288838842EA03431D4A4032847A02EB25
:10203000C4025360C27A3AB9194A121D12688A431F
:10204000174B1B1D1A6006E0154A121D12680A4341
:10205000134B1B1D1A60028932B9114A14321268DF
:102060008A430F4B14331A600289012A06D10C4AA5
:10207000143212680A430A4B14331A60427B012A55
:1020800006D1074A1C3212680A43054B1C331A60FA
:10209000034A126822F00102014B1A6010BD0000D1
:1020A0000066004070B504460D4600266069284071
:1020B000002871D0B5F5807F5CD010DC082D35D0BC
:1020C00006DC012D20D0022D24D0042D72D127E072
:1020D000102D31D0202D35D0402D6BD138E0B5F505
:1020E000004F60D009DCB5F5007F49D0B5F5806FB1
:1020F0004CD0B5F5006F5DD14FE0B5F5803F2DD0E8
:10210000B5F5003F56D12FE0A0682D4900F0FAFB4D
:10211000064651E0E068032100F0F4FB06464BE080
:10212000E068082100F0EEFB064645E0E06810217B
:1021300000F0E8FB06463FE02069032100F0E2FBE7
:10214000064639E02069082100F0DCFB064633E052
:102150002069102100F0D6FB06462DE060680821BA
:1021600000F0D0FB064627E06068102100F0CAFBB3
:10217000064621E0A069012100F0C4FB06461BE0F1
:10218000A069022100F0BEFB064615E0A06904210B
:1021900000F0B8FB06460FE00FE0A069702100F0E8
:1021A000B1FB064608E06068042100F0ABFB064680
:1021B00002E0FFE7002600BF00E00026304670BDC9
:1021C000010101002DE9F04100244FE000262948DB
:1021D00000EB0410007B042805D1264800EB041016
:1021E0004078461C03E0234800EB04104678651C49
:1021F00039E000271F4800EB0510007B042805D1BB
:102200001C4800EB05104078471C03E0194800EB20
:1022100005104778174800EB04100078154901EBCA
:102220000511097888421DD1124800EB041040685E
:10223000104901EB05114968884205D1BE4203D11E
:10224000611C0DA006F018FA0A4800EB0410806823
:10225000084901EB05118968884203D1611C0CA073
:1022600006F00AFA6D1C062DC3DB641C062CADDBE0
:10227000BDE8F08100130020D0F2C1D02564C9E888
:10228000B1B8B7A2CBCD4944D6D8B8B40D0A000036
:10229000D0F2C1D02564C9E8B1B8BDD3CAD549448C
:1022A000D6D8B8B40D0A00001AB143690B43436194
:1022B00002E043698B434361704730B5024600201A
:1022C0000023146824F002041460146844F001042C
:1022D000146000E05B1C546804F001041CB94FF664
:1022E000FF74A342F6D1546804F001040CB9002035
:1022F0006CE08C79012C04D1146844F080041460E3
:1023000003E0146824F080041460CC79012C04D11B
:10231000146844F04004146003E0146824F040049E
:1023200014600C7A012C04D1146844F02004146069
:1023300003E0146824F0200414604C7A012C04D1CA
:10234000146844F01004146003E0146824F01004CE
:1023500014608C7A012C04D1146844F008041460D1
:1023600003E0146824F008041460CC7A012C04D132
:10237000146844F00404146003E0146824F00404B6
:1023800014608C78A407CD7844EA05640D7944EA9A
:1023900005444D7944EA05540D886D1E2C43D461E3
:1023A000146824F001041460002300E05B1C5468EE
:1023B00004F001041CB14FF6FF74A342F6D1546837
:1023C00004F001040CB1002000E0012030BD000049
:1023D0002DE9F04104460D4616461F46DDF81880EB
:1023E000062C73DC601E734A02EB00104570601E01
:1023F000114601EB00100770601E01EB0010067320
:10240000601E01EB0010A0F80E80072E6FD2DFE8EF
:1024100006F0C104284C7397AC00042D0DD84FF47E
:102420000071601E634A02EB0010416005F5007008
:10243000611E02EB0111886012E0082D0DD840F2F8
:10244000FF11601E5B4A02EB0010416005F5007051
:10245000611E02EB0111886002E057A006F00CF942
:10246000A2E0042D0DD84FF40071601E514A02EB1A
:102470000010416005F50070611E02EB01118860DB
:1024800012E0082D0DD840F2FF11601E494A02EB00
:102490000010416005F50070611E02EB01118860BB
:1024A00002E045A006F0E8F87EE085B1042D0ED8E4
:1024B00040F2FF11601E3F4A02EB0010416005F53B
:1024C0000170611E02EB0111886014E06DE0072DC0
:1024D0000ED840F2FF21601E364A02EB0010416028
:1024E00005F50170611E02EB0111886003E057E001
:1024F00031A006F0C1F857E0042D0DD840F2FF11CD
:10250000601E2C4A02EB0010416005F20520611E9E
:1025100002EB0111886012E0082D0DD840F2FF2176
:10252000601E244A02EB0010416005F20520611E86
:1025300002EB0111886002E01FA006F09DF833E075
:102540007DB1032D0DD840F2FF11601E194A02EB38
:102550000010416005F50170611E02EB01118860F9
:1025600002E015A006F088F81EE07DB1042D0DD81C
:102570004FF40071601E0F4A02EB0010416005F538
:102580000070611E02EB0111886002E00AA006F0F3
:1025900073F809E0601E074901EB0010456003E095
:1025A00008A006F069F800BF02E00BA006F064F88E
:1025B000BDE8F0810013002049442077726F6E67F8
:1025C0000D0A00006E6F207375636820646576697C
:1025D00063650D0A00000000736571B1D8D0EBD0BF
:1025E000A1D3DA43414E5F4445564943455F4E55BA
:1025F0004D0D0A0010B500F5D87303EB01131B68ED
:1026000003F004031372137A53B900F5D87303EB84
:1026100001131B6840F2FF7404EA5353136009E08E
:1026200000F5D87303EB01131B686FF0604404EAF4
:10263000D303536000F5D87303EB01131B6803F059
:102640000203537200F5D87303EB01135B6803F0C8
:102650000F03937200F5D87303EB01135B681B0A39
:10266000D37400F5D87303EB01139B68D37200F5A4
:10267000D87303EB01139B681C0A147300F5D8731D
:1026800003EB01139B681C0C547300F5D87303EB28
:1026900001139B681B0E937300F5D87303EB0113B2
:1026A000DB68D37300F5D87303EB0113DB681C0AF6
:1026B000147400F5D87303EB0113DB681C0C54741D
:1026C00000F5D87303EB0113DB681B0E937421B97B
:1026D000C36843F02003C36003E0036943F02003B1
:1026E000036110BD00218171C1710172417281725B
:1026F000C1728170C17003210171022141710121F8
:102700000180704708B508E00DF026FA009000F04F
:10271000F4F8012168460CF02BFCF5E710B50246F1
:102720000020936803F08063B3F1806F00D110E064
:10273000936803F00063B3F1006F01D1012008E05A
:10274000936803F08053B3F1805F01D1022000E071
:102750000420042874D002F5C07303EB00131B6837
:1027600003F0010402F5C07303EB00131C600B7A45
:102770007BB94B7A0C8843EA445302F5C07404EBEE
:1027800000142468234302F5C07404EB0014236092
:1027900010E00B7A4C6843EAC4034C7A234302F5F9
:1027A000C07404EB00142468234302F5C07404EBE6
:1027B000001423608B7A03F00F038B7202F5C07351
:1027C00003EB00135B6823F00F0402F5C07303EB07
:1027D00000135C6002F5C07303EB00135B688C7A36
:1027E000234302F5C07404EB001463608B7B1C066A
:1027F0004B7B44EA03440B7B44EA0323CC7A234318
:1028000002F5C07404EB0014A3608B7C1C064B7CA7
:1028100044EA03440B7C44EA0323CC7B234302F5C4
:10282000C07404EB0014E36002F5C07303EB001303
:102830001B6843F0010402F5C07303EB00131C6036
:1028400010BD000010B500241DE0104800EB04107E
:102850000078012808D10D4800EB0410611C426883
:102860000BA005F009FF0DE0084800EB041000780C
:10287000022807D1054800EB0410611C42680EA035
:1028800005F0FAFE641C062CDFDB10BD00130020EF
:10289000C9E8B1B8D0F2C1D03A25640969645F7360
:1028A000656E643A252358094368616E6E6C653A1B
:1028B00043414E310D0A0000C9E8B1B8D0F2C1D091
:1028C0003A25640969645F73656E643A2523580983
:1028D0004368616E6E6C653A43414E320D0A0000EA
:1028E000704708B508E00DF037F9009002F08AFB58
:1028F000072168460CF03CFBF5E710B5012002F01B
:1029000051FE10BD0246002002EA01030BB1012076
:1029100000E0002070470000002007490880488040
:1029200088809FED060A064880ED000A9FED030AA5
:1029300080ED010A70470000100400200000000034
:102940000804002010B50021024A1160516003F014
:102950005FFA10BD1804002010B501F0A5FB01F0CE
:1029600093F901F05DFA01F0A5FCFFF7B9FFFEF75E
:10297000E7FFFFF7ADF810BD10B5002003F09EF99A
:1029800013484FF4FA61C269904712484FF4FA6154
:10299000C269904710484FF4FA61C26990470C48E9
:1029A000816988470B48816988470B488169884756
:1029B0000A48C16C88470A48C16C88470948C16CFD
:1029C00088470948C16C88470848C16C884710BDD2
:1029D0007403002098030020BC030020E4010020C1
:1029E000F400002054000020A400002094010020E6
:1029F00008B508E00DF0B0F80090FFF7ADFF012139
:102A000068460CF0B5FAF5E770B506460C4604F0DA
:102A10008000802808D104F07F0000EB800106F5DB
:102A20008E7000EBC10507E004F07F0000EB800131
:102A300006F55D7000EBC10504F07F00287004F01E
:102A40008000C00968702946304605F098F90020DA
:102A500070BD70B506460C4604F08000802808D191
:102A600004F07F0000EB800106F58E7000EBC105DD
:102A700005E004EB840106F55D7000EBC105002064
:102A8000A87004F07F002870C4F3C0106870294655
:102A9000304605F04CF9002070BD2DE9F0410646A6
:102AA0000D4690461F4605F08000802808D105F0AD
:102AB0007F0000EB800106F58E7000EBC10407E09B
:102AC00005F07F0000EB800106F55D7000EBC104AE
:102AD00005F07F00207005F08000C0096070C4F828
:102AE0000880E770607808B12078E080022F01D17B
:102AF000002020712146304605F0CDF80020BDE8C9
:102B0000F0812DE9F04105460E461746984606F03D
:102B10007F0000EB800105F55D7000EBC104E7600C
:102B2000C4F814800020A061607006F07F0020705F
:102B3000E878012800D12761207820B9214628466D
:102B400004F0CDFF03E02146284605F079F9002086
:102B5000BDE8F08108B500220092009A61F30A12E4
:102B6000009202691268009B1A4303691A6008BD4B
:102B700070B506460C4604F08000802808D104F0A9
:102B80007F0000EB800106F58E7000EBC10505E0CB
:102B900004EB840106F55D7000EBC1050120A8700F
:102BA00004F07F002870C4F3C010687029463046D6
:102BB00005F014F9002070BD2DE9F04107460D46DF
:102BC0001646984605F07F0000EB800107F58E70F1
:102BD00000EBC1040120607005F07F002070E6600A
:102BE00026610020A061C4F81480207820B9214615
:102BF000384604F074FF03E02146384605F020F91A
:102C00000020BDE8F081000030B587B00546594C82
:102C1000284604F02AFF01A802F056F9029CE86851
:102C2000C0680590059820F4705005900598E968F3
:102C3000C860284605F0CCFA03280BD10020A87004
:102C40004FF40070A880059820F4705000F51050E3
:102C500005907EE00120A8704020A880464884426C
:102C600009D34648844206D2059820F4705000F5F6
:102C7000605005906DE04148844209D34048844249
:102C800006D2059820F4705000F55050059060E091
:102C90003B48844209D33B48844206D2059820F43D
:102CA000705000F54050059053E03648844209D3F7
:102CB0003548844206D2059820F4705000F5305013
:102CC000059046E03048844209D33048844206D219
:102CD000059820F4705000F52050059039E02B48FD
:102CE000844209D32A48844206D2059820F47050C1
:102CF00000F5105005902CE02548844209D3254862
:102D0000844206D2059820F4705000F500500590DA
:102D10001FE02048844209D31F48844206D2059808
:102D200020F4705000F5E050059012E01A488442FB
:102D300009D31A48844206D2059820F4705000F551
:102D4000C050059005E0059820F4705000F5A050A3
:102D500005900598E968C86000200690069820F460
:102D6000005000F5005006900698E968486101207F
:102D700007B030BD007A030AC0E1E4000024F4008B
:102D8000E0EC040100C31801002D310140A44C0106
:102D900000366E0140E2950180C3C90160600B02FC
:102DA000F8B50546002400200090284605F051FAA9
:102DB000064681E006F0010000287BD0E1B22846FB
:102DC00000F0F6FA0090009800F0010030B3012006
:102DD00000FA04F72869406BB8432969486300206A
:102DE0000090009820F00100401C009005F11800B0
:102DF00050F8240000998160E1B2324800684268CE
:102E000028469047E878012808D13CB940F21110D3
:102E1000405D042802D1284604F00CFF0098C0F35E
:102E2000C00060B100200090009820F00800083039
:102E3000009005F1180050F8240000998160009876
:102E4000C0F3001060B100200090009820F0100046
:102E50001030009005F1180050F8240000998160AE
:102E60000098C0F3801060B100200090009820F01E
:102E700040004030009005F1180050F824000099FF
:102E800081600098C0F3400060B10020009000987D
:102E900020F00200801C009005F1180050F824007A
:102EA000009981600098C0F3C01018B121462846EF
:102EB00000F092FA641C7608002E7FF47BAF0120AC
:102EC000F8BD0000DC0700207CB50446002500208A
:102ED0000190204605F0C5F906466FE006F00100B6
:102EE000002869D0E9B2204605F0C3F901900198A5
:102EF00000F00100C8B300200190019820F001000B
:102F0000401C019004F1540050F8250001998160A3
:102F1000E078012817D104F1540050F82500006929
:102F2000009005EB850104F55D7000EBC100806841
:102F30000099C1F31201411A05EB850204F55D7099
:102F400000EBC2008161E9B21E48006802682046B9
:102F50009047E078012808D13DB940F21110005D9A
:102F6000052802D1204604F065FE0198C0F3400018
:102F700060B100200190019820F00200801C0190B7
:102F800004F1540050F82500019981600198C0F3C4
:102F9000C00088B10B48006881682046884700203F
:102FA0000190019820F008000830019004F15400CD
:102FB00050F82500019981606D1C7608002E8DD196
:102FC00001207CBDDC0700203EB50446A07A78B124
:102FD000D4F80C0100680090009820F002000090E6
:102FE000009820F0010000900099D4F80C010160D5
:102FF00000200190019820F00100401C0190206900
:1030000040680199884321694860094800688169DE
:103010002046884700200290029820F0004000F1EE
:10302000004002900298E168486101203EBD000026
:10303000DC0700207CB5044600200190019820F0B8
:10304000100010300190E068806901998843E168C0
:103050008861E068006A0090009800F00F0000EBC3
:10306000800104F55D7000EBC1050098C0F343409A
:1030700007282DD2DFE800F02C04051D1E2C1F00B0
:1030800027E00098C0F30A1090B10098C0F30A122C
:103090002046E96805F0F7F8E8680099C1F30A11DD
:1030A0000844E860A8690099C1F30A110844A861BE
:1030B0000FE00EE00DE0082204F2CC51204605F0AE
:1030C000E2F8A8690099C1F30A110844A86100E078
:1030D00000BF00BFE068806901990843E16888612A
:1030E00001207CBD38B5044608480068C168204608
:1030F000884700200090009820F0080008300090D9
:103100000098E1684861012038BD0000DC0700201C
:103110001FB50446002000904FF48970005D0090B8
:1031200023480068416920468847206980680190EB
:1031300000200390039820F4006000F500600390E5
:103140000398E1684861A07A70B3019800F001002B
:1031500050B340F21510005D012825D19DF8000004
:10316000032821D100200290029820F00100401C89
:103170000290D4F80C01006802990843D4F80C11AD
:103180000860029820F00200801C0290D4F80C0124
:10319000006802990843D4F80C11086005480068DB
:1031A00040F0060003490860012004B010BD000093
:1031B000DC07002010ED00E030B587B004460020A9
:1031C000029006900590049003900190029820F0E0
:1031D0000100401C029020694068029988432169DF
:1031E00048600021204604F0C9FF00250BE0FF21C4
:1031F00004F1180050F82500816004F1540050F8E3
:10320000250081606D1C6078A842F0D84FF0FF3136
:103210002069816106986FF30F00401C06900698A4
:1032200080B200F58030069006992069C16105984A
:1032300020F0080008300590059820F00100401C9F
:103240000590059820F00200801C059005992069E2
:103250004161049820F00100401C0490049820F083
:10326000080008300490049820F00200801C0490AC
:10327000049920690161206900680390039820F493
:10328000FE600390039920690160204604F0D2FC9F
:1032900000200190019820F4805000F580500190AA
:1032A0000198E16848610448006801692046884740
:1032B000012007B030BD0000DC0700202DE9F041FF
:1032C00006460F463946304604F0F2FF01214FF41E
:1032D000897081550021801C8155002511E005EB86
:1032E000850106F58E7000EBC10401206070257029
:1032F000E5800020E0704020A0600020E060606178
:103300006D1C7078A842EAD8002510E005EB850115
:1033100006F55D7000EBC104002060702570E5804B
:10332000E0704020A0600020E06060616D1C70785B
:10333000A842EBD8304604F087FB304604F0B2F9DF
:103340000021304605F01CF8304604F03EFA3046C5
:1033500004F0DCFEBDE8F08138B5044600200090A2
:1033600007480068C16920468847009820F480100B
:1033700000F5801000900098E1684861012038BD98
:10338000DC07002038B5044600200090074800689C
:10339000016A20468847009820F4001000F50010CC
:1033A00000900098E1684861012038BDDC070020EA
:1033B00030B5024615692B6915696C6B24FA01F565
:1033C00005F0010543EAC51302F1180555F821502F
:1033D000AD6805EA030030BD2DE9F84306460F4607
:1033E00000250020009007EB870106F58E7000EBAA
:1033F000C104D4E90501451AA068A84200D2A56815
:10340000E81C4FEA900806F1180050F82700806980
:10341000009029E0D4E90501451AA068A84200D22D
:10342000A568E81C4FEA9008ABB2FAB23046E168F2
:1034300004F0CDFFE0682844E060A0692844A06162
:1034400006F1180050F8270080690090D4E90501C2
:10345000884209D12178012000FA01F93069406BD6
:1034600020EA090031694863009880B2404506D9D6
:10347000D4E90510884202D260690028CAD101202F
:10348000BDE8F88310B50749074800F023F938B1C3
:103490000649054800F00CF80249034800F022F8FC
:1034A00010BD000000880020886002400008002055
:1034B0000246094B9A4201D2084801E006481038FA
:1034C00001F000531BB1064B0B40C36002E0044BFC
:1034D0000B408360704700001064024000600240AF
:1034E0007D0F7D0F0246094B9A4201D2084801E048
:1034F0000648103801F000531BB1064B0B40C36067
:1035000002E0044B0B4083607047000010640240EF
:10351000006002407D0F7D0F21B1026842F0010280
:10352000026003E0026822F00102026070470000BE
:10353000016821F0010101600021016041608160AA
:10354000C1600161212141614A49884204D13D2184
:10355000484A103A91608CE046491831884205D1BA
:103560004FF47461434A103A916082E0414930312E
:10357000884205D14FF474113E4A103A916078E0C8
:103580003C494831884205D14FF07461394A103ABC
:1035900091606EE037496031884204D13649354A3E
:1035A000103AD16065E033497831884204D133491B
:1035B000304A103AD1605CE02E499031884204D103
:1035C0002F492C4A103AD16053E02A49A831884249
:1035D00005D14FF03D51274A103AD16049E02949C1
:1035E000884204D13D21274A083A116041E025492B
:1035F0001831884205D14FF47461224A083A1160AB
:1036000037E020493031884205D14FF474111D4A0A
:10361000083A11602DE01B494831884205D14FF02E
:103620007461184A083A116023E0164960318842F3
:1036300004D11149134A121F11601AE0114978315F
:10364000884204D10D490F4A121F116011E00D4943
:103650009031884204D10A490A4A121F116008E0D9
:103660000849A831884204D14FF03D51054A121F44
:1036700011607047106002403D000020400F0020A4
:1036800000003D201064024021B1026842F4802213
:10369000026003E0026822F480220260704722B1D7
:1036A000036843F40023036003E0036823F400236A
:1036B0000360016170470146486880B27047014667
:1036C00000200A6802F400220AB1012000E0002074
:1036D0007047000070B50246002000240025124EFD
:1036E000B24201D2114B01E00F4B103B104E0E4085
:1036F00036B11E2606EAD124166806EA040502E061
:10370000566906F0800501F000560EB15C6800E0D5
:103710001C68084E344004EA010616B10DB10120C0
:1037200000E0002070BD0000106402400060024014
:103730003C0F3C0F7D0F7D0F10B500220268134B2C
:103740001A40CC680B6823434C6923438C6923439C
:10375000CC6923430C6A23434C6A23438C6A23437A
:103760004C6B23438C6B23431A430260426922F063
:103770000702D1E90B3423431A4342610B694360CA
:103780004B6883608B68C36010BD00003F801CF0F5
:103790004160704700B58FB001214D4801F034FB06
:1037A0000121102001F070FB0121102001F07CFBB1
:1037B0000021102001F078FB07221146454800F057
:1037C0007FFB80200D9002208DF8380000208DF8BE
:1037D0003A0003208DF8390000208DF83B000DA938
:1037E0003C4800F025FB3C4802F026FF3B4809908E
:1037F0000020ADF82800ADF82A004FF48060ADF845
:103800002C000420ADF82E000020ADF8300009A9EE
:10381000314802F0D9FF012240212F4802F003FF76
:1038200010212D4802F0EAFE012240F224412A48EC
:1038300002F0A4FF0121284802F0E9FE25208DF8BE
:10384000380004208DF8390000208DF83A0001205E
:103850008DF83B000EA801F087F82148FFF768FEBD
:103860004FF0006000901C48001D01901D48029020
:103870000020039024200490002005904FF48060E5
:1038800006900020079008904FF4807009904FF444
:1038900040300A9000200B900C900D900E906946DD
:1038A0000F48FFF749FF00220E4924310C48FFF76B
:1038B000F6FE01210A48FFF7E7FE00210848FFF75E
:1038C0002BFE01210648FFF727FE0FB000BD0000C8
:1038D000020040000004024000100140A0860100E8
:1038E00040640240801200207047000010B50420A0
:1038F00000F016F840B10A2006F0AEFA044800685D
:10390000012801D100F056FE042000F003F810BD9C
:10391000088240420149086070470000143C0140A1
:1039200001460020034A12680A400AB1012000E063
:1039300000207047143C0140002123498279002A6D
:103940003AD00A46126803689A430B461A600A1D69
:10395000126803689A430B1D1A60027911440A68C1
:1039600003681A430A60184A0832126803689A43C7
:10397000154B08331A601A1D126803689A43124BDC
:103980000C331A604279102A0ED11A1F126803688C
:103990001A430D4B08331A601A1D126803681A4344
:1039A000094B0C331A600DE00749427911440A684B
:1039B00003681A430A6005E0027911440A68036843
:1039C0009A430A6070470000003C014000B52DEDAD
:1039D000068B85B0154890ED060A10EE101A0846C1
:1039E000FDF73BFA41EC180B104890ED050A10EE7C
:1039F000101A0846FDF731FA41EC190B0B4890ED0F
:103A0000040A10EE101A0846FDF727FA41EC1A0BCB
:103A10008DED028B8DED009B53EC1A2B04A004F06E
:103A20002BFE05B0BDEC068B00BD0000D4020020CB
:103A3000504B503A25332E32662C504B493A2531A3
:103A40002E32662C504B443A25332E32660000004D
:103A500070B505460C46012D04D0022D12D0032D61
:103A600030D11FE000EE104AB8EEC00ADFED180AB0
:103A700080EE201A174890ED040A30EE410A80EDDE
:103A8000040A20E000EE104AF8EEC00A9FED101A7A
:103A900080EE810A0F48D0ED050A30EEC00A80EDB5
:103AA000050A10E000EE104AB8EEC00ADFED080A81
:103AB00080EE201A074890ED060A30EE410A80EDAC
:103AC000060A00E000BF00BFFFF780FF70BD0000E6
:103AD0000000C842D402002070B505460C46012DF6
:103AE00004D0022D12D0032D30D11FE000EE104A79
:103AF000B8EEC00ADFED180A80EE201A174890EDE4
:103B0000040A31EE000A80ED040A20E000EE104ABB
:103B1000F8EEC00A9FED101A80EE810A0F48D0ED32
:103B2000050A30EE200A80ED050A10E000EE104A8A
:103B3000B8EEC00ADFED080A80EE201A074890EDC3
:103B4000060A31EE000A80ED060A00E000BF00BF61
:103B5000FFF73CFF70BD00000000C842D402002007
:103B60000448036840685A1C40F1000001490A609B
:103B7000486070471804002070B505460C46012DBA
:103B800004D0022D12D0032D30D11FE000EE104AD8
:103B9000B8EEC00ADFED180A80EE201A174890ED43
:103BA000040A30EE410A80ED040A20E000EE104ADB
:103BB000F8EEC00A9FED101A80EE810A0F48D0ED92
:103BC000050A30EEC00A80ED050A10E000EE104A4A
:103BD000B8EEC00ADFED080A80EE201A074890ED23
:103BE000060A30EE410A80ED060A00E000BF00BF81
:103BF00000F08CFD70BD00000000C84254000020A1
:103C000070B505460C46012D04D0022D12D0032DAF
:103C100030D11FE000EE104AB8EEC00ADFED180AFE
:103C200080EE201A174890ED040A31EE000A80ED6C
:103C3000040A20E000EE104AF8EEC00A9FED101AC8
:103C400080EE810A0F48D0ED050A30EE200A80EDA3
:103C5000050A10E000EE104AB8EEC00ADFED080ACF
:103C600080EE201A074890ED060A31EE000A80ED3A
:103C7000060A00E000BF00BF00F048FD70BD000074
:103C80000000C8425400002000B52DED028B91B019
:103C900000F05AF98DED0F0ACDED100A9DED0F0AD7
:103CA000194880ED000A052101A800F057F901A884
:103CB0000FC8CDE90B23CDE909019DED0A8A052145
:103CC00005A800F04BF905A80FC8CDE90F23CDE9F1
:103CD0000D01BDF836004FF4B47110FB01F000EE99
:103CE000100AB8EEC00A38EE008A08480169884711
:103CF00028EE000A044880ED010A816C884711B063
:103D0000BDEC028B00BD00005400002074030020B5
:103D100070B505460C46012D04D0022D12D0032D9E
:103D200030D11FE000EE104AB8EEC00ADFED180AED
:103D300080EE201A174890ED040A30EE410A80ED1B
:103D4000040A20E000EE104AF8EEC00A9FED101AB7
:103D500080EE810A0F48D0ED050A30EEC00A80EDF2
:103D6000050A10E000EE104AB8EEC00ADFED080ABE
:103D700080EE201A074890ED060A30EE410A80EDE9
:103D8000060A00E000BF00BF00F00EFD70BD00009D
:103D90000000C842A400002070B505460C46012D65
:103DA00004D0022D12D0032D30D11FE000EE104AB6
:103DB000B8EEC00ADFED180A80EE201A174890ED21
:103DC000040A31EE000A80ED040A20E000EE104AF9
:103DD000F8EEC00A9FED101A80EE810A0F48D0ED70
:103DE000050A30EE200A80ED050A10E000EE104AC8
:103DF000B8EEC00ADFED080A80EE201A074890ED01
:103E0000060A31EE000A80ED060A00E000BF00BF9E
:103E100000F0CAFC70BD00000000C842A4000020F1
:103E200010B50248816C884710BD0000A400002036
:103E3000F0B50A4600210023002400BF3DE0012523
:103E400005FA01F3156805EA03049C4234D10568BC
:103E50004F000326BE40B543056015794E00B540BE
:103E60000668354305601579012D02D01579022DBC
:103E700016D185684F000326BE40B543856055794D
:103E80004E00B540866835438560456801268E4002
:103E9000B5434560456896798E40B6B23543456076
:103EA000C5684F000326BE40B543C560D5794E00B6
:103EB000B540C6683543C560491C1029BFD3F0BD65
:103EC000F0B5002300244D07ED0E02FA05F3CE10E5
:103ED00000F1200555F826504E07F70E0F26BE407C
:103EE000B543CF1000F1200646F82750CE1000F160
:103EF000200555F8265045EA0304CE1000F12005B0
:103F000045F82640F0BD41837047018370470AB1F0
:103F1000018300E0418370471CB50121202000F09F
:103F200073FF0120009000208DF8040003208DF81D
:103F3000050001208DF8070069460248FFF778FF69
:103F40001CBD000000140240024890ED000AD0EDB4
:103F5000010A704708040020012070477FB504461D
:103F60000D46681E0E4901EB0010007B002807DD9E
:103F7000681E0C4901EB00130FCB84E80F007FBDD6
:103F8000294609A004F078FB0020009001900290DF
:103F900003909DE80F0084E80F0000BFEFE70000EA
:103FA0000013002090040020646576696365202575
:103FB00064206973206E6F742061206D6F746F725E
:103FC0000D0A000010B50446162202492046FCF7EF
:103FD0003BFC10BDC812002001480068704700007B
:103FE0007404002001480078704700001900002088
:103FF0000148007870470000180000200148007850
:1040000070470000E103002010B504463422024945
:104010002046FCF719FC10BDE819002070B50A48CD
:104020000468001D0568001D0668344454B1082268
:104030000649204600F0E1F90422044910312846DF
:1040400000F0DBF970BD0000107AFF1F0E090020A0
:10405000014800787047000028090020114890EDC1
:10406000000AFBEE0E0AB4EEE00AF1EE10FA04D8F4
:10407000BBEE0E0A80ED000A13E00A4890ED000A3C
:10408000F2EE0E0AB4EEE00AF1EE10FA04DBB2EE44
:104090000E0A80ED000A04E0024890ED000A80ED6F
:1040A000000A70470804002010B52DED048B90B075
:1040B000744800787449087072480078097888421A
:1040C00001D004F0D7FAFFF799FF05283ED2DFE8C8
:1040D00000F0033ED1D2D3009FED6C0A6C4880ED16
:1040E000000A04216846FFF739FF9DE80F0008AC7D
:1040F0000FC49DED098A042104A8FFF72FFF04A82F
:104100000FC80CAC0FC4BDF832004FF4B47110FBF3
:1041100001F000EE100AB8EEC00A38EE000AB1EE67
:10412000408A5C480169884728EE000A584880EDBB
:10413000010A9FED560A584880ED000A0BF00CFD6D
:10414000B0F57A6F02D901204E49087095E0FFF76B
:10415000FBFE8DED0E0ACDED0F0A9DED0F0A4C48CA
:10416000D0ED000A30EE600A10EE104A2046FCF74F
:1041700074FE41EC180B9FED490B53EC102BFCF730
:1041800097FE16D2424890ED000A10EE101A08462B
:10419000FCF763FE41EC190B9FED420B53EC102B27
:1041A000FCF7C2FC41EC180BFCF79AFE384908609A
:1041B0003CE0FFF7C9FE8DED0E0ACDED0F0A9DED37
:1041C0000F0A3348D0ED000A30EE600A10EE104AB4
:1041D0002046FCF742FE41EC180B9FED340B53ECEC
:1041E000102BFCF74DFE16D2294890ED000A10EE78
:1041F000101A0846FCF731FE41EC190B9FED290B14
:1042000053EC102BFCF731FD41EC180BFCF768FE6A
:104210001F4908600AE0FFF797FE8DED0E0ACDED0D
:104220000F0A9DED0F0A1A4880ED000A0421684626
:10423000FFF794FE9DE80F0008AC0FC49DED098ABE
:10424000042104A8FFF78AFE04A80FC80CAC0FC411
:10425000BDF832004FF4B47110FB01F000EE100A0B
:10426000B8EEC00A38EE000AB1EE400A084880ED08
:10427000010A02E001E000E000BF00BF10B0BDECA9
:10428000048B10BDE1030020E003002000000000CB
:10429000A400002098030020F40300200000000088
:1042A0000000F03F000000000000E03F00000000C0
:1042B0000000F0BF10B50B4890ED0D0ABDEEC00A2E
:1042C00010EE100A01B2042001F03EFA064890ED0B
:1042D0000D0ABDEEC00A10EE100A01B2052001F071
:1042E00033FA10BDA40000205400002070B506462B
:1042F0003048007800285BD12F480068B0F5806F07
:1043000002D100202C4908602B4800682B4909681D
:10431000884203D100202749087070BD26480068F4
:1043200026490968884206D923480068C0F580609C
:104330002349086006E0214800681F490968401ABF
:104340001F4908601E480068402811D91A48008893
:1043500085B2402418480068403017490860184862
:10436000006840381649086001201249087018E0BA
:104370001148008885B21248008884B20E4800684F
:104380000F49096808440C49086000200C4908607E
:10439000402C03D102200749087002E001200549A2
:1043A000087008484219234681213046FEF704FC74
:1043B00000BFB2E70808002000080020FC0700202A
:1043C00004080020CF47012000BFFEE708E007F007
:1043D00057F805F0C5FE06F095FA052005F03CFDFE
:1043E000F5E710B50446FFF7F7FD201AB0F5967F04
:1043F00001D9012010BD0020FCE730B50B4600219B
:1044000000BF16E00A24B4EB107F05D9302404EB7A
:10441000107403F8114005E0412404EB10740A3CC9
:1044200003F81140000100254C00641C1D554C1C74
:10443000E1B29142E6DB30BD00B58FB001224021F0
:104440001B4802F0F0F81B48FFF772F84FF00060CD
:1044500000901748001D019017480290002003901B
:104460004FF4C8700490002005904FF480600690CF
:104470000020079008904FF48070099000020A9085
:1044800000200B900C900D900E9069460948FFF7A4
:1044900053F9002209490748FFF701F901210548AE
:1044A000FFF7F2F801210348FFF736F80FB000BD1F
:1044B000004400408860024054090020E40A0020C3
:1044C00010B501F05DFFFFF7B7FF4FF448721249D6
:1044D000124805F0ADFD64221149124805F0A8FD0F
:1044E00011481249886000F5C870C8604FF4C87060
:1044F00088800A48086000200882488207480C49E2
:10450000086001F10A0048600020A1F870000881ED
:1045100081F86E0010BD0000400D0020100D00203D
:1045200060100020280D002054090020FC0C002001
:10453000C410002000B585B00121880300F0A4FC60
:104540000121022000F060FC0420039000208DF87F
:1045500012008DF8100003208DF8110001208DF855
:10456000130003A91248FFF763FC0221012000F0A9
:10457000F9FF0420019000208DF8080008208DF834
:10458000090001208DF80A0001A8FFF7D5F90820DD
:104590008DF8000004208DF801008DF80200012044
:1045A0008DF80300684600F0DFF905B000BD00009B
:1045B0000004024006480068C0430649C1F8AC0246
:1045C0000548D0F8B802C0430349C1F8B8027047A3
:1045D000AC02424200004242008042421CB501212E
:1045E000702000F011FC4FF4FF70009001208DF856
:1045F000040000208DF8060003208DF8050001203E
:104600008DF8070069461548FFF712FC4FF400606B
:10461000009001208DF8040000208DF80600032092
:104620008DF8050001208DF8070069460C48FFF75A
:10463000FFFB4FF48040009001208DF80400002023
:104640008DF8060003208DF8050001208DF8070085
:1046500069460448FFF7ECFB1CBD0000001802404F
:10466000001002400014024010B5FFF7B7FF012010
:104670000B4908600B49C1F88802094908310860F4
:10468000091D0860091D0860091D0860091D0860F2
:10469000091D0860044908600449C1F8B80210BD4A
:1046A0008402434200004342AC0242420080424244
:1046B0001CB50121402000F0A7FB4FF400500090F2
:1046C00001208DF8040000208DF8060003208DF8ED
:1046D000050069460448FFF7ABFB4FF40051024860
:1046E000FFF711FC1CBD00000018024010B5FFF7D9
:1046F000DFFF4FF400510248FFF707FC10BD000038
:104700000018024000BFFEE77047000000B52DED25
:10471000068B85B0154890ED060A10EE101A084673
:10472000FCF79BFB41EC180B104890ED050A10EECE
:10473000101A0846FCF791FB41EC190B0B4890ED61
:10474000040A10EE101A0846FCF787FB41EC1A0B1E
:104750008DED028B8DED009B53EC1A2B04A003F022
:104760008BFF05B0BDEC068B00BD0000540000209F
:10477000504B503A25332E32662C504B493A253156
:104780002E32662C504B443A25332E326600000000
:1047900008B508E00BF0E0F90090FFF7B5FF012144
:1047A00068460AF0E5FBF5E700B52DED068B85B010
:1047B000154890ED060A10EE101A0846FCF74DFB5E
:1047C00041EC180B104890ED050A10EE101A08463F
:1047D000FCF743FB41EC190B0B4890ED040A10EE7B
:1047E000101A0846FCF739FB41EC1A0B8DED028BD1
:1047F0008DED009B53EC1A2B04A003F03DFF05B098
:10480000BDEC068B00BD0000A4000020504B503AC8
:1048100025332E32662C504B493A25312E32662CE8
:10482000504B443A25332E326600000000B5024654
:104830000878C0F3001020B3087800F001004FF4AE
:10484000A57310FB03F0444B18800878C0F34000B8
:1048500040424FF4A57310FB03F03F4B18800878DB
:10486000C0F3C000E62310FB03F03B4B58800878F0
:10487000C0F380004042E62310FB03F0364B588023
:1048800021E0087800F00100CF2310FB03F0324B49
:1048900018800878C0F340004042CF2310FB03F09B
:1048A0002D4B18800878C0F3C000CF2310FB03F015
:1048B000294B58800878C0F380004042CF2310FB7A
:1048C00003F0254B5880B2F9000010F1960F03DC7D
:1048D0006FF09500108008E0B2F90000962802DB26
:1048E0009620108001E010881080B2F9020010F1CB
:1048F000960F03DC6FF09500508008E0B2F90200DB
:10490000962802DB9620508001E0508850801348A2
:1049100090ED000AB2F9020000EE900AF8EEE00A0B
:104920009FED0F1A00EEC10A0C4880ED000A90EDD1
:10493000010AB2F9000000EE900AF8EEE00A9FEDDD
:10494000081A00EE810A054880ED010AFFF786FB90
:10495000104600F007F800BD1004002008040020F5
:10496000CDCCCCBC7047704770B5002100230F221E
:10497000C4781CB3174C246804F4E064C4F5E06404
:10498000C4F30721C1F10404E3B20A4144789C4016
:10499000E1B28478144021430C07210E0E4C0578B7
:1049A0006155047804F01F050124AC4005786D11B1
:1049B000AD0005F1E025C5F8004109E0047804F0F8
:1049C0001F050124AC40054D0678761145F82640B8
:1049D00070BD00000CED00E000E400E080E100E0CC
:1049E00002490143024A1160704700000000FA05C5
:1049F0000CED00E010B500203A4908703A48007804
:104A00003A49087000203A4908703A4800783A4913
:104A10000870062005F088FB0446B4F5486F05DDF4
:104A2000002031490870354908602EE0B4F5487F10
:104A300006DDB4F57A7F03DA01202B49087024E003
:104A4000B4F5C86F06DDB4F5E16F03DA022026493C
:104A500008701AE0B4F52F6F07DD40F61C40844261
:104A600003DA0320204908700FE040F698008442E2
:104A700006DDB4F5166F03DA04201B49087004E064
:104A80000A2C02DA052018490870174800781749DF
:104A90000978884206D00BF05FF8194908600120B8
:104AA000104908700BF058F815490968401A134965
:104AB000086008460068322803D90B4800780D4981
:104AC00008700C4800780C490978884206D00BF031
:104AD00043F80B4908600120054908700548007833
:104AE00010BD000059040020570400205804002085
:104AF000220400202004002021040020240400209F
:104B00006004002000B58DB00121084600F07CF95A
:104B100040200B9003208DF8300000208DF83300EA
:104B20000BA91D48FFF784F90121080200F0ACF938
:104B30000121080200F0B8F900214FF4807000F064
:104B4000B3F90120FCF74EFE002007900A9009906F
:104B50004FF48030089007A8FCF792FD00200190E8
:104B60008DF8080001208DF80900002003900590C1
:104B700001208DF8180001A90848FCF7A7FD0023C3
:104B8000012206210548FCF7CBFD01210348FCF773
:104B90006BFD0DB000BD0000000002400020014090
:104BA00010B5FFF727FF34480078052862D2DFE808
:104BB00000F00310283A4F0006F0DAFB06F08EFAF8
:104BC0002E48007820B106F0A1FF002006F092FEEA
:104BD00050E0294800782A490978884206D006F032
:104BE00051FE06F093FF002006F084FE2348007873
:104BF00030B124480078052802D100201E490870F1
:104C000038E008F0EDFC06F081FF002006F072FEAF
:104C10001A48007830B11B480078052802D10020DE
:104C20001549087026E01548007830B108F0F0FB0F
:104C300006F06CFF002006F05DFE1048007830B1F1
:104C400010480078052802D100200B49087011E0B7
:104C500007F0E6FE06F05AFF002006F04BFE07487C
:104C6000007830B107480078052802D100200249B9
:104C7000087000BF00BF10BD5204002022040020B5
:104C8000530400202004002008B508E00AF064FF67
:104C90000090FFF785FF052168460AF069F9F5E7FE
:104CA00010B5024802F0B6F810BD0000D04B01204C
:104CB00090ED020A80ED030A90ED000AD0ED010AA2
:104CC00030EE600A80ED020A90ED080AD0ED020A8B
:104CD00030EE200A80ED080A90ED080AD0ED0B0AAC
:104CE000F1EE600AB4EEE00AF1EE10FA06D290EDB1
:104CF0000B0AB1EE400A80ED080A0CE090ED080ABC
:104D0000D0ED0B0AB4EEE00AF1EE10FA03DD90EDFF
:104D10000B0A80ED080A90ED040AD0ED020A20EE9D
:104D2000200AD0ED050A90ED081A00EE810AD0EDB8
:104D3000020A90ED031A70EEC10A90ED061A01EE18
:104D4000200A80ED0D0A90ED0D0AD0ED0E0AB4EEAA
:104D5000E00AF1EE10FA04DD90ED0E0A80ED0D0A86
:104D600010E090ED0D0AD0ED0E0AF1EE600AB4EEFF
:104D7000E00AF1EE10FA05D290ED0E0AB1EE400A0B
:104D800080ED0D0A704700009FED0C0A80ED070AC8
:104D90009FED0A0A80ED080A9FED080A80ED090AD6
:104DA0009FED060A80ED020A9FED040A80ED030ADA
:104DB0009FED020A80ED0D0A704700000000000020
:104DC00010B500F007F83C210148FFF79EF810BD30
:104DD000001C02401CB50121802000F015F83C2089
:104DE000009001208DF8040000208DF806000320BB
:104DF0008DF8050001208DF8070069460148FFF78E
:104E000017F81CBD001C024029B1064A1268024373
:104E1000044B1A6004E0034A12688243014B1A6093
:104E2000704700003038024029B1064A1268024338
:104E3000044B1A6004E0034A12688243014B1A6073
:104E4000704700003438024029B1064A1268024314
:104E5000044B1A6004E0034A12688243014B1A6053
:104E6000704700004038024029B1064A12680243E8
:104E7000044B1A6004E0034A12688243014B1A6033
:104E8000704700002038024029B1064A12680243E8
:104E9000044B1A6004E0034A12688243014B1A6013
:104EA000704700004438024029B1064A12680243A4
:104EB000044B1A6004E0034A12688243014B1A60F3
:104EC0007047000024380240F0B500210022002481
:104ED000022500260223324F3F6807F00C0121B162
:104EE000042905D0082937D105E02E4F076036E0A8
:104EF0002D4F076033E02A4F3F1F3F68C7F38056AE
:104F0000274F3F1F3F6807F03F036EB1264FB7FBA7
:104F1000F3F7DFF88CC0ACF1040CDCF800C0CCF384
:104F2000881C07FB0CF40CE01E4FB7FBF3F7DFF80F
:104F300070C0ACF1040CDCF800C0CCF3881C07FB9B
:104F40000CF4174F3F1F3F68C7F301477F1C7D00DC
:104F5000B4FBF5F7076002E0124F076000BF00BF27
:104F60000F4F3F6807F0F0010909104F7A5C07689E
:104F7000D74047600A4F3F6807F4E051890A0B4F5A
:104F80007A5C4768D7408760054F3F6807F4604107
:104F9000490B064F7A5C4768D740C760F0BD0000F8
:104FA000083802400024F400001BB7001A0000205B
:104FB0000168491C0160D0E90012914201DB41689F
:104FC000016090ED000AF8EEC00A90ED010AB8EE1B
:104FD000C00A80EE801A80ED021A90ED020A704736
:104FE000416070470146D1E90002904201DB012097
:104FF00070470020FCE700210160704701607047A6
:105000004160704700B58DB001A8FEF7DBFF1822A4
:1050100001A907A8FBF718FC00F05CFBFEF79CFF5A
:10502000012802D0032809D103E007A800F00AF8FC
:1050300005E00CA90AA8FFF7F9FB00E000BF00BFDC
:105040000DB000BD10B50446B4F9060000EE100A1C
:10505000B8EEC00ADFED260A20EE200ABDEEC00A37
:1050600010EE100A00B223490880B4F9040000EEE3
:10507000100AB8EEC00ADFED1E0A20EE200ABDEECF
:10508000C00A10EE100A00B248801B4890ED000ADA
:10509000B4F9020000EE900AF8EEE00A9FED171A4C
:1050A00000EE810A144880ED000A90ED010AB4F97F
:1050B000000000EE900AF8EEE00A9FED111A00EEF3
:1050C000810A0D4880ED010AFEF7C8FFE07AC0F3BF
:1050D000800040B1B2EE040A074880ED000A9FED5F
:1050E000090A80ED010A204600F00EF810BD00000C
:1050F0009A99993E10040020080400206F12833B07
:105100006F12033B0000000010B50446A07A00F0C7
:10511000010068B1002000F03BFD00F00DFE002012
:1051200000F0D4FD4FF400511348FEF7ECFE22E0EE
:10513000A07AC0F3400068B1012000F029FD4FF4CF
:1051400000510D48FEF7E1FE00F0F0FD002000F0F8
:10515000BDFD10E0A07AC0F3800060B1002000F037
:1051600017FD00F0E3FD012000F0B0FD4FF4005109
:105170000148FEF7CAFE10BD0018024008B550E015
:105180000AF0EAFC0090FEF733FF08B325480078E8
:1051900030B90120234908700C2000F09DFD09E082
:1051A00020480078012805D100201E4908701520EC
:1051B00000F092FD1C480068C0431C49C1F8AC02D5
:1051C0001B48D0F8B802C0431949C1F8B8021BE027
:1051D000FEF708FF60B10C2000F07EFD00201249B0
:1051E00008601348D0F8B802C043124908600BE0C9
:1051F000152000F071FD01200B4908600C48D0F823
:10520000B802C0430B4908600AF0A6FC0446FFF749
:10521000E8F808B900F0B2FD4FF4FA71684609F0F9
:10522000A7FEADE750000020AC024242000042421F
:1052300000804242B882424200B587B0012102207C
:10524000FFF7E2FD4FF4C060059001208DF81800D3
:1052500000208DF819008DF81A008DF81B0005A9A3
:105260003B48FEF7E5FD01210220FFF7CDFD0820B8
:10527000059002208DF8180003208DF819000020F9
:105280008DF81A008DF81B0005A93148FEF7D0FDF6
:10529000052203212E48FEF713FE01210846FFF7E1
:1052A000B3FD8020059002208DF8180003208DF8B2
:1052B000190000208DF81A008DF81B0005A925485B
:1052C000FEF7B6FD052207212248FEF7F9FD012170
:1052D0000803FFF7D9FD01210803FFF7E5FD0021D1
:1052E0004FF48050FFF7E0FD00211B4800F0DAF892
:1052F0004FF44040ADF800004FF48270ADF802006A
:105300000020ADF80400ADF80600ADF808004FF439
:105310000070ADF80A000020ADF80C00ADF80E00EA
:105320000720ADF8100069460B4800F0D5F80121C0
:10533000094800F0ABF80021074800F007F9012107
:10534000054800F0AFF8FF2000F008F807B000BDF6
:1053500000040240000002400030014010B5044645
:1053600000BF0221054800F0A9F80028F9D0214625
:10537000024800F0AFF8002010BD000000300140EE
:1053800000B587B001212020FFF73EFD012108056F
:10539000FFF77AFD012240213A48FEF7B8FD402090
:1053A000059001208DF8180000208DF81A000320C8
:1053B0008DF8190001208DF81B0005A93148FEF772
:1053C00037FD01212020FFF71FFD01210805FFF710
:1053D0005BFD4FF46070059002208DF818000020EE
:1053E0008DF81A0003208DF8190001208DF81B009C
:1053F00005A92448FEF71CFD052207212148FEF7D8
:105400005FFD052208211F48FEF75AFD05220921EC
:105410001C48FEF755FD01210805FFF745FD002159
:105420004FF48010FFF740FD0020ADF800004FF46E
:105430008270ADF802000020ADF80400ADF806005F
:10544000ADF808004FF40070ADF80A003020ADF858
:105450000C000020ADF80E000720ADF810006946E2
:10546000094800F039F80121074800F01BF8FF2037
:1054700000F050F8012240210248FEF748FD07B035
:1054800000BD0000001402400050014021B102881C
:1054900042F40052028004E002884DF6FF731A4085
:1054A0000280704721B1028842F04002028004E08D
:1054B00002884FF6BF731A400280704702460020F0
:1054C00013890B400BB1012000E00020704701461A
:1054D000888970478181704710B50022028802F4E4
:1054E00041520B884C8823438C882343CC88234328
:1054F0000C8923434C8923438C892343CC89234340
:105500001A430280838B4FF2FF74234083830B8AFC
:10551000038210BD10B5044600BF02210A48FFF700
:10552000CDFF0028F9D021460748FFF7D3FF00BF81
:1055300001210548FFF7C2FF0028F9D00248FFF714
:10554000C6FFC0B210BD00000050014021B18288EA
:1055500042F01002828004E082884FF6EF731A4016
:105560008280704730B500228B071C0F0F2303FA8F
:1055700004F20B4B8C1053F824309343084C8D10DD
:1055800044F8253023468C1053F824308C07240F20
:1055900000FA04F42343024C8D1044F8253030BD4A
:1055A0000838014010B586B00446601E404901EB42
:1055B0000010007B002878DD601E01EB00104068C1
:1055C000019000208DF80C008DF80D0008208DF85A
:1055D0000E00601E01EB00104068A0F2FF1020B327
:1055E000012803D0B0F5807F5DD13DE0601E3049D9
:1055F00001EB0010007801280BD12E480168CDF88E
:105600000F104068CDF8130001A92B48FDF786F86C
:105610000AE02A480168CDF80F104068CDF8130061
:1056200001A92748FDF77AF83DE0601E204901EB0B
:105630000010007801280BD122480168CDF80F1026
:105640004068CDF8130001A91B48FDF767F80AE090
:105650001D480168CDF80F104068CDF8130001A96E
:105660001748FDF75BF81EE0601E114901EB0010C2
:10567000007801280BD115480168CDF80F1040685B
:10568000CDF8130001A90C48FDF748F80AE01048CE
:105690000168CDF80F104068CDF8130001A9084843
:1056A000FDF73CF800BF00BF00BF06B010BD000012
:1056B0000013002050050020006400406805002011
:1056C000006800405805002070050020600500209B
:1056D0007805002000B591B0194800781949087084
:1056E00001A8FEF76FFC182201A90BA8FBF7ACF884
:1056F0000BA807C808AB07C39DF82B0007909DF8BF
:105700001C0000F0010010B101200D49087001A833
:10571000FEF758FC182201A90BA8FBF795F80BA877
:1057200007C808AB07C39DF82B0007909DF81C0025
:10573000C0F3400010B103200149087011B000BD52
:10574000040400200504002070B504460D46601EC8
:10575000F84901EB0010007B00286FDD601E01EBB3
:105760000010007B072853D2DFE800F05204111E1E
:105770002B384500F048854201DC054606E042F240
:105780001070854201DB054600E000BF41E015F5E1
:10579000804F01DCE94D06E0B5F5804F02DB4FF4A8
:1057A000804500E000BF34E0E548854201DC054665
:1057B00006E047F23050854201DB054600E000BFBD
:1057C00027E0E048854201DC054606E047F2481044
:1057D000854201DB054600E000BF1AE0DA48854259
:1057E00001DC054606E041F28830854201DB0546D2
:1057F00000E000BF0DE015F5004F01DCD34D06E0E1
:1058000047F6FF70854201DB054600E000BF00E07F
:1058100000BF00BF601EC74901EB001000780128DF
:105820007ED1601E01EB00104068A0F2FF10D8B1DD
:10583000012804D0B0F5807F15D178E094E1C5F35C
:105840000721601EBB4A02EB001040784000801E1A
:10585000BF4A1154601EB74A02EB00104078400066
:10586000401EBB4A15549DE0601EB24901EB00107A
:10587000007B012805D0601E01EB0010007B022890
:1058800016D1C5F30721601EAA4A02EB001040782A
:10589000001F4000801EAF4A1154601EA54A02EB53
:1058A00000104078001F4000401EAA4A15543DE0F9
:1058B000601EA04901EB0010007B032805D0601E8C
:1058C00001EB0010007B032814D1C5F30721601EF3
:1058D000984A02EB001040784000801E9D4A115407
:1058E000601E944A02EB001040784000401E994A26
:1058F00015541BE0601E8F4901EB0010007B04284B
:1059000014D1C5F30721601E8A4A02EB00104078CB
:10591000904A02F81010601E864A02EB001000E068
:1059200041E040784000401C8A4A15543AE0601E2D
:10593000804901EB0010007B032816D1C5F3072135
:10594000601E7C4A02EB00104078001F4000801E61
:10595000814A1154601E774A02EB00104078001F04
:105960004000401E7C4A15541BE0601E714901EB4B
:105970000010007B042814D1C5F30721601E6D4A76
:1059800002EB00104078001F734A02F81010601EEE
:10599000684A02EB00104078001F4000401C6E4A2D
:1059A000155400BFE4E0601E624901EB001000786E
:1059B0000228F7D1601E01EB00104068A0F2FF1032
:1059C000D0B1012803D0B0F5807F14D175E0C5F3C4
:1059D0000721601E574A02EB001040784000801EED
:1059E0005E4A1154601E534A02EB0010407840009A
:1059F000401E5A4A15549BE0601E4E4901EB0010B0
:105A0000007B012805D0601E01EB0010007B0228FE
:105A100016D1C5F30721601E464A02EB00104078FC
:105A2000001F4000801E4E4A1154601E414A02EB86
:105A300000104078001F4000401E494A15543BE0CA
:105A4000601E3C4901EB0010007B032805D0601E5E
:105A500001EB0010007B032814D1C5F30721601E61
:105A6000344A02EB001040784000801E3C4A11543A
:105A7000601E304A02EB001040784000401E384A59
:105A8000155419E0601E2B4901EB0010007B04281F
:105A900012D1C5F30721601E264A02EB00104078A0
:105AA0002F4A02F81010601E224A02EB00104078C4
:105AB0004000401C2A4A15543AE0601E1D4901EB83
:105AC0000010007B032816D1C5F30721601E194A78
:105AD00002EB00104078001F4000801E214A115444
