:020000040800F2
:10000000B059012081020008973D000835380008EA
:10001000353B0008311B0008315E0008000000007D
:10002000000000000000000000000000C101000806
:10003000712E0008000000001D0200086D5100082C
:100040009B0200089B0200089B0200089B0200081C
:100050009B0200089B0200089B0200089B0200080C
:10006000752E00089B0200089B0200089B020008F6
:100070009B0200089B0200089B0200089B020008EC
:100080000D2A00089B0200089B020008891C00083A
:100090004D1C00089B0200089B0200089B02000800
:1000A0009B0200089B0200089B0200089B020008BC
:1000B0009B0200089B020008F15100089B02000807
:1000C0009B0200089B0200089B0200089B0200089C
:1000D0009B02000899570008755800085D590008F0
:1000E0009B0200089B0200089B0200089B0200087C
:1000F0009B0200089B0200089B0200089B0200086C
:100100009B0200089B0200089B0200089B0200085B
:100110009B0200089B020008295200089B0200086D
:100120009B0200089B0200089B0200089B0200083B
:100130009B0200089B0200089B020008F51D0008B6
:10014000C51D00089B0200089B0200089B020008D6
:100150009B0200089B0200089B020008E55900086A
:100160009B0200089B0200089B0200089B020008FB
:100170009B0200089B0200089B0200080000000090
:100180009B0200089B020008DD5500086556000828
:100190009B0200089B0200089B0200089B020008CB
:1001A00000000000000000009B020008DFF80CD0F7
:1001B00001F05AF8004800471D880008B059012096
:1001C0002C4B19680868B0E8F04F80F30988BFF33A
:1001D0006F8F4FF0000080F311887047000000001F
:1001E00008480068006880F308884FF0000080F33A
:1001F000148862B661B6BFF34F8FBFF36F8F00DF15
:1002000000BF00BF08ED00E0DFF80C00016841F41A
:1002100070010160704700BF88ED00E0EFF30980D6
:10022000BFF36F8F134B1A681EF0100F08BF20ED3D
:10023000108A20E9F04F106009B44FF0500080F3AD
:100240001188BFF34F8FBFF36F8F0CF09BFA4FF005
:10025000000080F3118809BC19680868B0E8F04F05
:100260001EF0100F08BFB0EC108A80F30988BFF3AE
:100270006F8F7047EC050020EFF30580704700009A
:100280000648804706480047FEE7FEE7FEE7FEE730
:10029000FEE7FEE7FEE7FEE7FEE7FEE7895100081E
:1002A000AD01000810B5044600BF00BF00BF00BF8D
:1002B000002CFDD000BF00BF00BF0029FDD000BF53
:1002C00000BF00BF002AFDD000BF00BF00BF002B51
:1002D000FDD000BF72B6216002FB0310401E6060BB
:1002E000A3600020E06022746161A16162B6002019
:1002F00010BD2DE9F04104460D460026002700BF41
:1003000000BF002CFDD000BF00BF00BF002DFDD0FE
:1003100000BF1C2008F092FA064616B90020BDE87E
:10032000F08104FB05F008F089FA07460FB90020B8
:10033000F5E72B46224639463046FFF7B3FF3046F5
:10034000EDE710B5044600BF00BF002CFDD000BF94
:1003500000BF00BF20680028FCD000BF206807F065
:100360009BFA204607F098FA10BD034600BF00BF75
:1003700000BF00BF002BFDD000BF00BF00BF0029A1
:10038000FDD000BF00BF00BF002AFDD000BF72B685
:1003900019608818401E58609A600020D860196162
:1003A000596162B60020704770B5044600250026EA
:1003B00000BF00BF002CFDD000BF182008F03EFA9F
:1003C00005460DB9002070BD204608F037FA0646F4
:1003D0000EB90020F7E7224631462846FFF7C5FF51
:1003E0002846F0E710B5044600BF00BF002CFDD042
:1003F00000BF00BF00BF20680028FCD000BF2068FD
:1004000007F04AFA204607F047FA10BD30B5024619
:1004100000230C4600BF00BF00BF00BF002AFDD074
:1004200000BF00BF00BF0029FDD000BF906810B919
:100430004FF0FF3030BD002310E055689069A842AE
:1004400001D91068906114F8010B9569287072B693
:100450009069401C906162B6581CC3B2107C9842EF
:10046000EBDC72B69068401E9060D068401CD06093
:1004700062B60020DEE7024600BF00BF00BF00BF3B
:10048000002AFDD000BF906810B94FF0FF307047D0
:1004900072B650695368984201D91068506150692A
:1004A00001705069401C50619068401E9060D06897
:1004B000401CD06062B60020E9E770B503460C46E8
:1004C000002500BF00BF00BF00BF002BFDD000BF54
:1004D000986810B94FF0FF3070BD002119E098689E
:1004E00010B94FF0FF3516E072B65E685869B04239
:1004F00001D918685861605C5E6930705869401CA9
:1005000058619868401E9860D868401CD86062B6F0
:10051000491C9142E3D300BF2846DDE730B50246CF
:1005200000230C4600BF00BF00BF00BF002AFDD063
:1005300000BF00BF00BF0029FDD000BFD06810B9C8
:100540004FF0FF3030BD002310E055685069A842DD
:1005500001D9106850615069007804F8010B72B637
:100560005069401C506162B6581CC3B2107C98425E
:10057000EBDC72B69068401C9060D068401ED06082
:1005800062B60020DEE70146002000BF00BF00BFCA
:1005900000BF0029FDD000BF72B60A694B689A42BD
:1005A00001D90A680A610A6910780A69521C0A614D
:1005B0008A68521C8A60CA68521ECA6062B6704756
:1005C00070B5024600230C4600BF00BF00BF00BF4D
:1005D000002AFDD000BF00BF00BF0029FDD000BF32
:1005E000D06810B94FF0FF3070BD72B6167CD0687D
:1005F000401E556906FB00501568451BD2E9006096
:10060000801B401CB5FBF0F600FB16501568284413
:100610005061D2E90250401E284490600120D06011
:1006200062B6002310E055685069A84201D91068ED
:1006300050615069007804F8010B72B65069401C93
:10064000506162B6581CC3B2107C9842EBDC72B6A3
:100650009068401C9060D068401ED06062B6002058
:10066000C2E710B50146002000BF00BF00BF00BFB9
:100670000029FDD000BF72B6D1E903321A44521EE0
:100680000B68D31AD1E90042121B521CB3FBF2F4DF
:1006900002FB14320B681A440A610A691078D1E926
:1006A00002231A448A600022CA6062B610BD70B587
:1006B00003460C46154600222E46002100BF00BF0F
:1006C000002BFDD000BF00BF00BF002DFDD000BF3C
:1006D000D868A04202D84FF0FF3070BD596900229F
:1006E00006E05868884200D21968491C501CC2B202
:1006F000187C60439042F4DC002209E0586888428C
:1007000000D21968087806F8010B491C501CC2B2C7
:10071000187C9042F2DC0020DFE710B502460B4661
:100720000024002100BF00BF002AFDD000BF1169D6
:10073000002406E05068884200D21168491C601C01
:10074000C4B29C42F6DB087810BD014600BF00BF72
:100750000029FDD000BFC86808B9012070470020FB
:10076000FCE7014600BF00BF0029FDD000BFC868FC
:1007700008B9012070470020FCE7014600BF00BF18
:100780000029FDD000BF886808B90120704700200B
:10079000FCE7014600BF00BF0029FDD000BF88680C
:1007A00008B9012070470020FCE7014600BF00BFE8
:1007B0000029FDD000BFC8687047014600BF00BFD8
:1007C0000029FDD000BFC8687047014600BF00BFC8
:1007D0000029FDD000BF88687047014600BF00BFF8
:1007E0000029FDD000BF88687047014600BF00BFE8
:1007F00000BF00BF0029FDD000BF72B6D1E90020C4
:10080000801A0A7C90FBF2F088600020C8600868BB
:1008100048610868886162B600207047014600BFE1
:1008200000BF00BF00BF0029FDD000BF72B6D1E9F4
:100830000020801A88600020C86008680861086885
:10084000486162B60020704740EA01039B0703D06D
:1008500009E008C9121F08C0042AFAD203E011F8FF
:10086000013B00F8013B521EF9D27047D2B201E0C1
:1008700000F8012B491EFBD270470022F6E710B5A5
:1008800013460A4604461946FFF7F0FF204610BDFE
:10089000CAB2401E10F8011F8A4202D00029F9D1C5
:1008A00000207047421C10F8011B0029FBD1801A60
:1008B0007047034611F8012B00F8012B002AF9D1EB
:1008C000184670470FB400B58DB010A909900B9071
:1008D00000914FF0FF300A9000200C9005480690E0
:1008E000054807906A4609A80F9900F091FB0DB0E2
:1008F0005DF814FB2D1000084B1000082DE9FF5F78
:100900001D464FF0FF3BD5E9014691465F464FF04B
:100910000008A9697F1C01988847296A8246884790
:100920000028F6D1BAF1FF3F0CD024F4C064002EA9
:1009300019DD600614D5BAF12B0F09D0BAF12D0FCD
:100940000ED103E0584604B0BDE8F09F44F4806443
:10095000A9697F1C01988847761E8246002E02DD19
:10096000BAF1300F03D0B9F1000F26D032E0A969F7
:10097000761E44F400747F1C019888478246002E3E
:1009800005DDBAF1780F06D0BAF1580F03D0B9F1EE
:10099000000F10D01EE0B9F1000F02D0B9F1100F16
:1009A00018D1A969761E24F400747F1C0198884729
:1009B0008246102002E0082000E00A20814609E07B
:1009C00008FB0908A969761E44F400747F1C01988D
:1009D00088478246002E05DD4946504600F004FB5C
:1009E0000028EDDAE96901988847A00502D46FF084
:1009F0000100A8E7E00725D1600613D5600502D500
:100A0000C8F1000000E0404629680A1D2A60096814
:100A1000220501D5087015E0220701D5088011E0F4
:100A200008600FE02868011D29600068210502D5D3
:100A300080F8008006E0210702D5A0F8008001E0E0
:100A4000C0F8008038467EE72DE9FF5FD2E901A7B4
:100A50004FF00008916999461446DDF838B04646D3
:100A600001988847054659EA0B0005D009E0A169BD
:100A7000761C019888470546216A28468847002841
:100A8000F5D1681C03D05FEACA7005D015E04FF0BD
:100A9000FF3004B0BDE8F09F2068011D2160D0F850
:100AA00000800AE05FEACA7001D108F8015BA16921
:100AB000761C7F1E019888470546002F1ADD681CAA
:100AC00018D0B9F1000F0DD0E81705EBD060421136
:100AD00020F01F0059F822102A1A012090400142EC
:100AE000E0D107E0BBF1000FDCD1216A284688473E
:100AF0000028D7D0E16901988847BBF1000F07D1E2
:100B0000002E05DD5FEACA7002D1002188F80010CE
:100B1000A068B84203DDBBF1000F03D017B16FF03E
:100B20000100B6E73046B4E72DE9FE4F804681EA82
:100B30000300C00F0C46009021F0004123F0004557
:100B4000B8EB0200A94105D24046214690461C461A
:100B50000B46024623F00040104347D0270DC7F351
:100B60000A00C3F30A510290401A019040286BDA40
:100B7000C3F3130040F4801B0098924620B1002379
:100B8000D2EB030A63EB0B0B01985946C0F140020C
:100B9000504600F008FA06460D4650465946019A5E
:100BA00000F010FA10EB08006141002487EA1152AE
:100BB00084EAE7731A4340D0009A62B3019A012A8B
:100BC0004FEA075215DC001B61EB02014FF00042B7
:100BD00002EA0752CDE90042001C41F5801132467D
:100BE0002B4600F089FA03B0BDE8F08F404621465D
:100BF000F9E7001B61EB0201001C41F580130018AE
:100C00005B412018A2F5001747EB030140EAD570BD
:100C1000B6196D4111E06D084FEA360645EAC07518
:100C20004FEA0752001B61EB0201001C41F58011E5
:100C300049084FEA30000019514132462B4603B0B3
:100C4000BDE8F04F00F049BA0098012240000023AF
:100C5000D0EB020263EBE073009821464FEAE074A8
:100C6000B8EB000061EB0401E9E783F000435BE7C8
:100C700081F0004158E72DE9FE4F81EA030404F0BA
:100C8000004421F0004100944FF0000B23F000439A
:100C900050EA01045ED052EA03045BD0C3F30A5465
:100CA000C1F30A552C44A4F2F3340194A0FB02547E
:100CB000C1F3130141F48011C3F3130343F4801310
:100CC00001FB024400FB034E840A970A44EA815464
:100CD00047EA8357A4FB076802958D0A05FB078541
:100CE0004FEA932C04FB0C542705029D4FEA06584B
:100CF00047EA1637B5EB08056EEB070C870E920E28
:100D000047EA811742EA8312A7FB0201B6EB0B0107
:100D100064EB00042B0D43EA0C335E1844EB1C50CB
:100D2000DA465146E7FB0201C5F313044FEA0B33E1
:100D300043EA14534FEA0432019C43EA0603A4F148
:100D40000C040294009CCDE900B400F0D5F903B086
:100D5000BDE8F08F00200146F9E72DE9F04D81EA6A
:100D6000030404F0004B21F0004514464FF0000A44
:100D700023F0004150EA050220D054EA01021DD0C0
:100D8000C5F30A570246C5F31303C1F31300C1F3B9
:100D90000A5640F4801543F48013A7EB0608101B95
:100DA000D64608F2FD3873EB050002D308F10108BE
:100DB00001E092185B41B8F1000F03DA0020014610
:100DC000BDE8F08D00204FF48011064684460EE009
:100DD000171B73EB050705D3121B63EB05030643D3
:100DE0004CEA010C49084FEA300092185B4150EA86
:100DF0000107EDD152EA030012D082EA040083EA2F
:100E00000501084305D0101BAB4106D20122002387
:100E100006E000224FF0004302E06FF001025310A1
:100E20001AEB06004CEB085110EB0A0041EB0B01EA
:100E3000BDE8F04D00F051B90EB5C10F80EAE07089
:100E40000844CA07002140F233438DE80E000A46E9
:100E50000B4600F051F903B000BD00F0004230F045
:100E600000400AD0C10D01F56071C0F3160042EADE
:100E70000151C208400711437047002001467047E6
:100E800030B5041E71F1000404DB4FF00044404211
:100E900064EB0101141E73F1000405DB1C464FF0E6
:100EA0000043524263EB04038B4208BF824230BDD1
:100EB00030B5041E71F1000404DB4FF000444042E1
:100EC00064EB0101141E73F1000405DB1C464FF0B6
:100ED0000043524263EB0403994208BF904230BD85
:100EE00001F0004330B421F0004150EA010206D085
:100EF0000A0DA2F56072C1F31301002A02DC30BCB6
:100F000000207047440F44EAC104C100E01830BC1F
:100F100000EBC25000F0AAB830B50B4601460020E5
:100F20002022012409E021FA02F59D4205D303FAAB
:100F300002F5491B04FA02F52844151EA2F101022C
:100F4000F1DC30BD2DE9F05F0546002092469B465E
:100F500088460646814640241BE0284641464746CF
:100F6000224600F093F953465A46C01A914110D3D5
:100F700011461846224600F016F82D1A67EB0108B4
:100F80004F4622460120002100F00DF817EB000922
:100F90004E41201EA4F10104DFDC484631462A46BA
:100FA0004346BDE8F09F202A04DB203A00FA02F114
:100FB000002070479140C2F1200320FA03F3194347
:100FC00090407047202A06DBCB17203A41FA02F006
:100FD00043EAE07306E041FA02F3D040C2F1200296
:100FE00091400843194670473A2800D2303820F023
:100FF0002002412A01D3A2F13700884201D34FF0E9
:10100000FF3070470268114413780160184670473A
:10101000D1600449516104491162002111611146F6
:1010200000F04AB905100008AD120008426842B14C
:10103000016811F8013B23B1521EC0E900121846A5
:1010400070470121C160881E704742685AB1C36869
:10105000016843B983688B4205D0491E521CC0E920
:101060000012002070474FF0FF3070470029A8BFE2
:101070007047401C490008BF20F00100704710B4C1
:10108000B0FA80FC00FA0CF050EA010404BF10BC76
:10109000704749B1CCF1200421FA04F411FA0CF1A3
:1010A00018BF012121430843A3EB0C01CB1D4FEADC
:1010B00000614FEA102042BF002010BC704700EBD7
:1010C000C35010440029A4BF10BC7047401C490005
:1010D00008BF20F0010010BC704710B5141E73F15A
:1010E000000408DA401C41F1000192185B411A43E8
:1010F00001D120F0010010BD2DE9F04D92469B4634
:1011000011B1B1FA81F202E0B0FA80F220329046D9
:10111000FFF749FF04460F4640EA0A0041EA0B0187
:1011200053465A46084313D0114653EA010019D0DA
:10113000C8F14002504600F0A9F805460E46504658
:1011400059464246FFF72FFF084305D0012004E02F
:1011500020463946BDE8F08D0020054346EAE0769A
:101160002C4337430A986305E40AA0EB08000022E9
:10117000FD0A44EA47540A3002D500200146E9E757
:10118000010510196941DDE9084500196941BDE80B
:10119000F04DA2E72DE9F04D00231A461B1A8A41B3
:1011A00003DB00200146BDE8F08DC1F30A52C1F314
:1011B000130141F480154FF0000BD10702D1001844
:1011C0006D41521E0027044640F2FF11384601EBE4
:1011D000620A3E468046024600204FF4801100F02D
:1011E00055F8C2197141BB1846EB0100B4EB030C72
:1011F00075EB000C04D3E41A65EB000517460E46A8
:10120000241908F101006D4180463428E3DDF91905
:1012100046EB0600091BA84103D24FF0FF321346EC
:1012200001E0002213461BEB070046EB0A51BDE824
:10123000F04DFFF752BFC1F30A52C1F3130140F260
:10124000FF3341F480119A4202DA002001467047D0
:1012500040F233439A42A2F2334202DC524200F09F
:1012600015B8FFF7A0BE0000064C074D06E0E06889
:1012700040F0010394E8070098471034AC42F6D3DD
:10128000FEF798FFE0E2000800E30008202A04DBF4
:10129000203A21FA02F00021704721FA02F3D040EF
:1012A000C2F120029140084319467047C0B24FF482
:1012B000F05100F097B900002DE9F34F8BB04FF0DB
:1012C000000801F10C000C464FF0010B46460DF1F1
:1012D000080A01906269012101989047051E2DD0EE
:1012E000252D2CD0216A8847C0B16269012101985F
:1012F0009047216A88470028F7D1411E626901980A
:10130000904700E0761CA1690B988847216A8847BE
:101310000028F7D1E1690B988847DBE7A1690B98B2
:1013200088470746A84201D1761CD3E7E1690B98AC
:1013300088477F1C02D1B8F1000F6FD046E100272B
:1013400062693D463946019890472A2804D162696E
:101350000121019890470125DFF8849262690121FB
:1013600001989047A0F130010A290AD24F45E5DCE7
:1013700007EB870100EB4107303FDFD445F0100554
:10138000ECE7E90601D46FF000476C280AD04C283E
:1013900014D0682815D06A280DD074281CD07A285B
:1013A0001AD01DE062690121019890476C2802D093
:1013B00045F0040514E045F002050DE045F0200578
:1013C0000AE06269012101989047682802D045F03F
:1013D000080505E045F40065626901210198904720
:1013E000C4E9015765283DD019DC58287AD00CDCB7
:1013F000452837D004DC252826D0412831D131E0DA
:1014000046282FD047282CD12CE05B2877D06128A4
:1014100028D063287CD0642823D15AE0D0E06F28FC
:1014200048D008DC66281DD067281BD0692821D049
:101430006E2816D127E0702845D0732868D075280B
:1014400047D078280DD14DE0A1690B988847054613
:1014500025283FF469AFE1690B9888476D1C3FF47C
:101460006AAFB3E023466A466FF001000B99AFF311
:1014700000809EE045F040006060A80723464FF0E2
:10148000000236D43EE0E8077FF447AF2068011D34
:1014900021600068290501D506701BE7290701D5E1
:1014A000068017E7A90703D5F117C0E9006111E726
:1014B00006600FE745F040006060A80723464FF044
:1014C000080216D41EE040F60E0125EA0100606015
:1014D00016E045F040006060A80723464FF00A027E
:1014E00007D40FE045F040006060A80708D5234608
:1014F00010226FF001000B99AFF3008059E007E074
:10150000234610226FF001000B99FFF7F7F950E026
:101510004FF000094F464B46632802D05B2806D0A7
:1015200040E0E80601D40120A06001273AE06269AA
:101530000121019890475E2805D14FF001096269A9
:10154000494601989047216939B900210A46534616
:1015500043F82120491C0829FADBB0B3216969B995
:10156000C11700EBD16253110AEB830122F01F0275
:10157000821A01200B68904003430B6062690121CD
:10158000019890475D28E8D1B9F1000F09D00020FB
:10159000514651F82020D24341F82020401C082811
:1015A000F7DB02AB224600976FF001000B99FFF7C3
:1015B0004BFA00280CDA401C08D1BBF1000F05D013
:1015C0004FF0FF300DB0BDE8F08FFFE74046F9E780
:1015D000E90701D108F1010806444FF0000B79E654
:1015E000CCCCCC0C7F2801D9002208E0064A02EBC3
:1015F0005002C007127800D1120902F00F02012038
:101600009040084070470000B8E1000870B58C18A1
:1016100010F8015B15F0070301D110F8013B2A1106
:1016200006D110F8012B03E010F8016B01F8016BF3
:101630005B1EF9D12B0705D40023521E0DD401F8EF
:10164000013BFAE710F8013BCB1A921C03E013F8B8
:10165000015B01F8015B521EF9D5A142D8D30020ED
:1016600070BDCA430260704721B1826842F0010236
:10167000826003E0826822F001028260704700000D
:101680000021084A1168084A1140D0E900231A4392
:1016900083681A43C3681A431143044AC2F8041307
:1016A0007047000004230140E030FCFF00200140AF
:1016B0000146C86C80B270470246002013680B4098
:1016C0000BB1012000E000207047000030B5024659
:1016D000002000235068104C20400D790C6844EA2B
:1016E00005242043506090680C4C2040D1E90354FD
:1016F0002C438D682C434D7944EA45042043906087
:10170000D06A20F470000C7D641EE4B2234340EAEA
:101710000350D06230BD0000FFFEFFFCFDF7FFC0AC
:10172000F0B504460D4600200021092D11DDE068CA
:10173000A5F10A0606EB4607072606FA07F18843D5
:10174000A5F10A0606EB460603FA06F10843E06037
:101750000CE0206905EB4507072606FA07F18843E8
:1017600005EB450603FA06F108432061072A0FDA64
:10177000606B561E06EB86071F2606FA07F18843A4
:10178000561E06EB860605FA06F10843606322E062
:101790000D2A0FDA206BD61F06EB86071F2606FAE6
:1017A00007F18843D61F06EB860605FA06F10843C3
:1017B000206310E0E06AA2F10D0606EB86071F2603
:1017C00006FA07F18843A2F10D0606EB860605FA34
:1017D00006F10843E062F0BD816841F0804181601C
:1017E0007047000038B10849096841F40001074A10
:1017F000C2F8041306E00449096821F40001034A11
:10180000C2F8041370470000042301400020014087
:1018100000B58BB00121402002F016FD012180208F
:1018200002F002FD092206211F4801F00DFE4020B2
:10183000099002208DF8280003208DF8290000204F
:101840008DF82A0001208DF82B0009A9164801F017
:10185000B3FD5320ADF818000020ADF81A000120A8
:1018600007900020ADF8200006A9104803F0AEFD57
:101870006020ADF804000120ADF806000020ADF8AE
:10188000100001A9094803F055FD0821074803F09D
:101890008FFD0121054803F009FD0121034803F0F4
:1018A00017FD0BB000BD0000001C024000180040F6
:1018B00010B5FFF7ADFF10BD10B500F035F802F020
:1018C0005FFF07F08FF906F06BFD02F011F801F0F1
:1018D00025FA02F047F802F0DFF802F081FC02F08E
:1018E0001DF9FFF7E5FF01F0DBFD00F01DFB01F046
:1018F00045F801F013F8094800680949B0FBF1F018
:10190000C4B2084841682046884702F095FE07F0B7
:1019100047FC02F00FFB07F075F810BD0000002037
:1019200040420F00B406002010B54FF4407002F0A2
:101930006FFAA82005F04EFE4FF4E13003F0D6FE1A
:1019400010BD000000B589B05548006808B10120FD
:1019500000E00020534908705348007828B19FEDFB
:10196000530A534880ED000A04E09FED520A5048A4
:1019700080ED000A012101A801F0B4FD01A80FC803
:10198000CDE90723CDE90501BDF91C0000EE100AE1
:10199000B8EEC00A464880ED010A816C8847444889
:1019A00090ED0D0ABDEEC00A10EE100A01B2012042
:1019B00003F0CAF840480078D8B140480078404267
:1019C00000EE100AB8EEC00ADFED3D0A20EE200A54
:1019D0003C4880ED000A3948007800EE100AB8EE65
:1019E000400ADFED370A20EE200A374880ED000A72
:1019F00009E09FED300A334880ED000A9FED2D0A83
:101A0000314880ED000A022101A801F06BFD01A818
:101A10000FC8CDE90723CDE90501BDF91C0000EE93
:101A2000100AB8EEC00A274880ED010A032101A878
:101A300001F058FD01A80FC8CDE90723CDE9050144
:101A4000BDF91C0000EE100AB8EEC00A1E4880ED79
:101A5000010A1C48816C88471B48816C88471948DB
:101A600090ED0D0ABDEEC00A10EE100A01B2022080
:101A700003F06AF8144890ED0D0ABDEEC00A10EEAE
:101A8000100A01B2032003F05FF8074800780F49FD
:101A90000870044800780E49087009B000BD0000C5
:101AA00000824242D4030020BC030020000087468D
:101AB000AC02002000000000BA030020C803002090
:101AC000236B88430C0200205C020020D30300201B
:101AD000D503002000B589B09FED130A134880EDAF
:101AE000000A062101A801F0FDFC01A80FC8CDE9FC
:101AF0000723CDE90501BDF91C0000EE100AB8EE80
:101B0000C00A0A4880ED010A816C8847074890EDB9
:101B10000D0ABDEEC00A10EE100A01B2062003F055
:101B200013F809B000BD00000000B4C3BC010020E0
:101B300000BFFEE700B58BB00121082002F074FB66
:101B40000121480602F080FB092200213D4801F0F6
:101B50007BFC092201213B4801F076FC0320029026
:101B600000208DF80E0003208DF80D0002208DF866
:101B70000C0002A9334801F01FFC14208DF804006A
:101B800001208DF805008DF806008DF8070001A8EA
:101B900002F002F913208DF8040000208DF80500F2
:101BA00001208DF806008DF8070001A802F0F4F876
:101BB000254800F09DF908A800F096FD00208DF85A
:101BC00026008DF827008DF828008DF829008DF863
:101BD0002A0001208DF82B0000208DF822008DF8BE
:101BE000230008208DF8240003208DF82500ADF88F
:101BF000200008A9144800F062FB00208DF81A00AC
:101C00008DF81B0001208DF81C000020ADF810009D
:101C1000ADF81200ADF81400ADF81600ADF81800DC
:101C200001208DF81D0004A800F0BAF9012202215C
:101C3000054800F03BFB01221146034800F036FB4B
:101C40000BB000BD000C02400064004000B585B040
:101C500002210B4800F028FA80B10421084800F066
:101C6000F3F80849064800F0D3F86A460021044812
:101C700000F0C2FC0121684605F07CFB05B000BD08
:101C8000006400400800003210B50121044800F053
:101C90000BFA18B10121024800F0D6F810BD00007F
:101CA0000064004000B58BB00121022002F0BCFAB4
:101CB0000121480602F0C8FA0121880602F0C4FAA0
:101CC00009220C213D4801F0BFFB09220D213B48B0
:101CD00001F0BAFB4FF44050029002208DF80C0046
:101CE00002A9364801F068FB40208DF8040002206C
:101CF0008DF8050001208DF806008DF8070001A879
:101D000002F04AF83F208DF8040001208DF805000C
:101D10008DF806008DF8070001A802F03DF828486C
:101D200000F0E6F808A800F0DFFC00208DF826009F
:101D30008DF827008DF828008DF829008DF82A00ED
:101D400001208DF82B0000208DF822008DF8230053
:101D500008208DF8240003208DF82500ADF8200020
:101D600008A9174800F0ABFA0E208DF81A000020E1
:101D70008DF81B0001208DF81C000020ADF810002C
:101D8000ADF81200ADF814004FF48060ADF8160005
:101D90000020ADF8180001208DF81D0004A800F007
:101DA000FFF801220221064800F080FA01221146C4
:101DB000034800F07BFA0BB000BD000000040240B5
:101DC0000068004000B585B00221094800F06CF9B8
:101DD00060B10221064800F037F86A460021044845
:101DE00000F00AFC0221684605F0C4FA05B000BD07
:101DF0000068004010B50121044800F055F918B101
:101E00000121024800F020F810BD000000680040E9
:101E100000220C4B994202D10023836111E0C1F3EF
:101E2000130201F000730BB1C2600AE001F080639D
:101E30000BB1026105E001F000630BB1826000E0CC
:101E4000426070477000F030B1F5007F3AD00FDC8F
:101E5000202928D006DC01291CD004291DD00829FE
:101E600040D11DE0402921D0B1F5807F3AD126E054
:101E7000B1F5004F31D006DCB1F5806F25D0B1F55A
:101E8000006F2FD124E0B1F5803F12D0B1F5003FB3
:101E900028D111E0154A826025E00822C26022E0C4
:101EA0001022C2601FE0082202611CE010220261C1
:101EB00019E00822426016E01022426013E004227A
:101EC000426010E0042242600DE0042242600AE019
:101ED000002282610422426005E000228261042225
:101EE000426000E000BF00BF704700000101010038
:101EF00010B504460B48844209D10121480602F07E
:101F0000B3F900214FF0007002F0AEF908E00121B2
:101F1000880602F0A9F900214FF0806002F0A4F9D0
:101F200010BD00000064004008B541F65C4002238B
:101F3000042200210090104600F04CFA40F2AA5012
:101F40000223032219460090052000F043FA0020E6
:101F50000223012211460090062000F03BFA0020E7
:101F600001231A4619460090184600F033FA002063
:101F70000123022211460090104600F02BFA0020A7
:101F80000123022203210090084600F023FA00F00A
:101F90001BF900F059FCFFF7CDFDFFF783FE08BDEC
:101FA00010B50021837A012202FA03F13D4A12683A
:101FB00042F001023B4B1A603A4A1C3212688A43D3
:101FC000384B1C331A60027BCAB9364A0C3212688D
:101FD0008A43344B0C331A604288C38842EA034375
:101FE000304A4032847A42F834300288838842EAA8
:101FF00003432C4A4032847A02EBC4025360027BD2
:10200000012A19D1274A0C3212680A43254B0C3396
:102010001A604288038842EA0343224A4032847AA3
:1020200042F83430C288838842EA03431D4A403272
:10203000847A02EBC4025360C27A3AB9194A121D7B
:1020400012688A43174B1B1D1A6006E0154A121DC1
:1020500012680A43134B1B1D1A60028932B9114AD8
:10206000143212688A430F4B14331A600289012A12
:1020700006D10C4A143212680A430A4B14331A6010
:10208000427B012A06D1074A1C3212680A43054BDB
:102090001C331A60034A126822F00102014B1A60D5
:1020A00010BD00000066004070B504460D460026D5
:1020B00060692840002871D0B5F5807F5CD010DCC5
:1020C000082D35D006DC012D20D0022D24D0042D82
:1020D00072D127E0102D31D0202D35D0402D6BD17D
:1020E00038E0B5F5004F60D009DCB5F5007F49D088
:1020F000B5F5806F4CD0B5F5006F5DD14FE0B5F50B
:10210000803F2DD0B5F5003F56D12FE0A0682D4976
:1021100000F0FAFB064651E0E068032100F0F4FB12
:1021200006464BE0E068082100F0EEFB064645E07D
:10213000E068102100F0E8FB06463FE0206903213B
:1021400000F0E2FB064639E02069082100F0DCFBE4
:10215000064633E02069102100F0D6FB06462DE04C
:102160006068082100F0D0FB064627E06068102177
:1021700000F0CAFB064621E0A069012100F0C4FB83
:1021800006461BE0A069022100F0BEFB064615E0F2
:10219000A069042100F0B8FB06460FE00FE0A0693B
:1021A000702100F0B1FB064608E06068042100F0F1
:1021B000ABFB064602E0FFE7002600BF00E000267A
:1021C000304670BD010101002DE9F04100244FE0CF
:1021D0000026294800EB0410007B042805D126487E
:1021E00000EB04104078461C03E0234800EB041089
:1021F0004678651C39E000271F4800EB0510007B7E
:10220000042805D11C4800EB05104078471C03E06A
:10221000194800EB05104778174800EB04100078C8
:10222000154901EB0511097888421DD1124800EBD0
:1022300004104068104901EB05114968884205D136
:10224000BE4203D1611C0DA003F0F6FD0A4800EB6D
:1022500004108068084901EB05118968884203D1A0
:10226000611C0CA003F0E8FD6D1C062DC3DB641C93
:10227000062CADDBBDE8F08160110020D0F2C1D0AA
:102280002564C9E8B1B8B7A2CBCD4944D6D8B8B413
:102290000D0A0000D0F2C1D02564C9E8B1B8BDD3A1
:1022A000CAD54944D6D8B8B40D0A00001AB143695A
:1022B0000B43436102E043698B434361704730B590
:1022C000024600200023146824F0020414601468FD
:1022D00044F00104146000E05B1C546804F0010445
:1022E0001CB94FF6FF74A342F6D1546804F0010400
:1022F0000CB900206CE08C79012C04D1146844F0F6
:102300008004146003E0146824F080041460CC7925
:10231000012C04D1146844F04004146003E01468F4
:1023200024F0400414600C7A012C04D1146844F0A9
:102330002004146003E0146824F0200414604C7A34
:10234000012C04D1146844F01004146003E01468F4
:1023500024F0100414608C7A012C04D1146844F029
:102360000804146003E0146824F008041460CC7AB4
:10237000012C04D1146844F00404146003E01468D0
:1023800024F0040414608C78A407CD7844EA056432
:102390000D7944EA05444D7944EA05540D886D1ED3
:1023A0002C43D461146824F001041460002300E07D
:1023B0005B1C546804F001041CB14FF6FF74A34287
:1023C000F6D1546804F001040CB1002000E00120B3
:1023D00030BD00002DE9F04104460D4616461F466B
:1023E000DDF81880062C73DC601E734A02EB0010C7
:1023F0004570601E114601EB00100770601E01EB76
:1024000000100673601E01EB0010A0F80E80072E6E
:102410006FD2DFE806F0C104284C7397AC00042D9E
:102420000DD84FF40071601E634A02EB001041604A
:1024300005F50070611E02EB0111886012E0082DA5
:102440000DD840F2FF11601E5B4A02EB00104160A4
:1024500005F50070611E02EB0111886002E057A0D3
:1024600003F0EAFCA2E0042D0DD84FF40071601EC9
:10247000514A02EB0010416005F50070611E02EB4D
:102480000111886012E0082D0DD840F2FF11601E86
:10249000494A02EB0010416005F50070611E02EB35
:1024A0000111886002E045A003F0C6FC7EE085B122
:1024B000042D0ED840F2FF11601E3F4A02EB0010BF
:1024C000416005F50170611E02EB0111886014E0A6
:1024D0006DE0072D0ED840F2FF21601E364A02EB58
:1024E0000010416005F50170611E02EB011188606A
:1024F00003E057E031A003F09FFC57E0042D0DD816
:1025000040F2FF11601E2C4A02EB0010416005F200
:102510000520611E02EB0111886012E0082D0DD824
:1025200040F2FF21601E244A02EB0010416005F2D8
:102530000520611E02EB0111886002E01FA003F07C
:102540007BFC33E07DB1032D0DD840F2FF11601EFE
:10255000194A02EB0010416005F50170611E02EBA3
:102560000111886002E015A003F066FC1EE07DB159
:10257000042D0DD84FF40071601E0F4A02EB0010BD
:10258000416005F50070611E02EB0111886002E0F8
:102590000AA003F051FC09E0601E074901EB00109E
:1025A000456003E008A003F047FC00BF02E00BA079
:1025B00003F042FCBDE8F08160110020494420771F
:1025C000726F6E670D0A00006E6F2073756368206E
:1025D0006465766963650D0A00000000736571B17A
:1025E000D8D0EBD0A1D3DA43414E5F44455649439E
:1025F000455F4E554D0D0A0010B500F5D87303EB3D
:1026000001131B6803F004031372137A53B900F526
:10261000D87303EB01131B6840F2FF7404EA5353B1
:10262000136009E000F5D87303EB01131B686FF02A
:10263000604404EAD303536000F5D87303EB01133D
:102640001B6803F00203537200F5D87303EB011308
:102650005B6803F00F03937200F5D87303EB01136B
:102660005B681B0AD37400F5D87303EB01139B68F6
:10267000D37200F5D87303EB01139B681C0A147323
:1026800000F5D87303EB01139B681C0C547300F521
:10269000D87303EB01139B681B0E937300F5D8737B
:1026A00003EB0113DB68D37300F5D87303EB01135D
:1026B000DB681C0A147400F5D87303EB0113DB68A4
:1026C0001C0C547400F5D87303EB0113DB681B0E6C
:1026D000937421B9C36843F02003C36003E0036926
:1026E00043F02003036110BD00218171C1710172AB
:1026F00041728172C1728170C17003210171022126
:10270000417101210180704708B508E00AF07EFCA4
:10271000009000F0F4F80121684609F083FEF5E727
:1027200010B502460020936803F08063B3F1806F18
:1027300000D110E0936803F00063B3F1006F01D1A2
:10274000012008E0936803F08053B3F1805F01D16A
:10275000022000E00420042874D002F5C07303EBCB
:1027600000131B6803F0010402F5C07303EB0013B0
:102770001C600B7A7BB94B7A0C8843EA445302F510
:10278000C07404EB00142468234302F5C07404EB06
:102790000014236010E00B7A4C6843EAC4034C7ABF
:1027A000234302F5C07404EB00142468234302F5AC
:1027B000C07404EB001423608B7A03F00F038B7258
:1027C00002F5C07303EB00135B6823F00F0402F5FE
:1027D000C07303EB00135C6002F5C07303EB0013DE
:1027E0005B688C7A234302F5C07404EB00146360C9
:1027F0008B7B1C064B7B44EA03440B7B44EA03239C
:10280000CC7A234302F5C07404EB0014A3608B7CE4
:102810001C064B7C44EA03440B7C44EA0323CC7B38
:10282000234302F5C07404EB0014E36002F5C073A7
:1028300003EB00131B6843F0010402F5C07303EBC4
:1028400000131C6010BD000010B500241DE01048EE
:1028500000EB04100078012808D10D4800EB0410AB
:10286000611C42680BA003F0E7FA0DE0084800EB9A
:1028700004100078022807D1054800EB0410611C01
:1028800042680EA003F0D8FA641C062CDFDB10BDF2
:1028900060110020C9E8B1B8D0F2C1D03A2564096E
:1028A00069645F73656E643A252358094368616EF5
:1028B0006E6C653A43414E310D0A0000C9E8B1B86B
:1028C000D0F2C1D03A25640969645F73656E643AD9
:1028D000252358094368616E6E6C653A43414E3258
:1028E0000D0A0000704708B508E00AF08FFB009061
:1028F00001F088FD0721684609F094FDF5E710B561
:10290000012002F04FF810BD0246002002EA010348
:102910000BB1012000E000207047000000200749B3
:102920000880488088809FED060A064880ED000AEE
:102930009FED030A80ED010A704700000C0400209F
:10294000000000000404002010B50021024A1160BC
:10295000516002F079FC10BD1804002010B500F0A1
:1029600047FE00F055FC00F01FFD00F047FFFFF7A9
:10297000B9FFFEF7E7FFFFF7ADF810BD10B5002077
:1029800002F09CFB13484FF4FA61C2699047124869
:102990004FF4FA61C269904710484FF4FA61C26976
:1029A00090470C48816988470B48816988470B48E4
:1029B000816988470A48C16C88470A48C16C8847C2
:1029C0000948C16C88470948C16C88470848C16CF0
:1029D000884710BD4C0300207003002094030020A2
:1029E000BC010020CC0000202C0000207C00002036
:1029F0006C01002008B508E00AF008FB0090FFF722
:102A0000ADFF0121684609F00DFDF5E710B5074956
:102A1000074800F023F938B10649054800F00CF8E2
:102A20000249034800F022F810BD00000088002091
:102A300088600240000800200246094B9A4201D2F9
:102A4000084801E00648103801F000531BB1064B5E
:102A50000B40C36002E0044B0B40836070470000F2
:102A600010640240006002407D0F7D0F0246094B5A
:102A70009A4201D2084801E00648103801F000539C
:102A80001BB1064B0B40C36002E0044B0B4083605C
:102A90007047000010640240006002407D0F7D0F0F
:102AA00021B1026842F00102026003E0026822F0F4
:102AB0000102026070470000016821F0010101601D
:102AC0000021016041608160C1600161212141619B
:102AD0004A49884204D13D21484A103A91608CE02D
:102AE00046491831884205D14FF47461434A103A7F
:102AF000916082E041493031884205D14FF4741130
:102B00003E4A103A916078E03C494831884205D10C
:102B10004FF07461394A103A91606EE03749603184
:102B2000884204D13649354A103AD16065E03349CC
:102B30007831884204D13349304A103AD1605CE0A0
:102B40002E499031884204D12F492C4A103AD16045
:102B500053E02A49A831884205D14FF03D51274A18
:102B6000103AD16049E02949884204D13D21274AE1
:102B7000083A116041E025491831884205D14FF4E7
:102B80007461224A083A116037E0204930318842A6
:102B900005D14FF474111D4A083A11602DE01B490C
:102BA0004831884205D14FF07461184A083A1160E3
:102BB00023E016496031884204D11149134A121F9B
:102BC00011601AE011497831884204D10D490F4A49
:102BD000121F116011E00D499031884204D10A4959
:102BE0000A4A121F116008E00849A831884204D13E
:102BF0004FF03D51054A121F1160704710600240AE
:102C00003D000020400F002000003D2010640240E5
:102C100021B1026842F48022026003E0026822F4DB
:102C200080220260704722B1036843F400230360EE
:102C300003E0036823F40023036001617047014649
:102C4000486880B27047014600200A6802F40022FA
:102C50000AB1012000E000207047000070B5024674
:102C6000002000240025124EB24201D2114B01E097
:102C70000F4B103B104E0E4036B11E2606EAD124F3
:102C8000166806EA040502E0566906F0800501F0C0
:102C900000560EB15C6800E01C68084E344004EA3F
:102CA000010616B10DB1012000E0002070BD00004A
:102CB00010640240006002403C0F3C0F7D0F7D0F0E
:102CC00010B500220268134B1A40CC680B682343EE
:102CD0004C6923438C692343CC6923430C6A234307
:102CE0004C6A23438C6A23434C6B23438C6B2343F2
:102CF0001A430260426922F00702D1E90B342343F0
:102D00001A4342610B6943604B6883608B68C36000
:102D100010BD00003F801CF04160704700B58FB0CF
:102D200001214D4801F080FA0121102001F0ACFA98
:102D30000121102001F0B8FA0021102001F0B4FAAE
:102D400007221146454800F07FFB80200D900220AD
:102D50008DF8380000208DF83A0003208DF83900F6
:102D600000208DF83B000DA93C4800F025FB3C48B5
:102D700002F0EEFE3B4809900020ADF82800ADF8C7
:102D80002A004FF48060ADF82C000420ADF82E002E
:102D90000020ADF8300009A9314802F0A1FF01225E
:102DA00040212F4802F0CBFE10212D4802F0B2FE48
:102DB000012240F224412A4802F06CFF01212848F8
:102DC00002F0B1FE25208DF8380004208DF839007E
:102DD00000208DF83A0001208DF83B000EA800F08D
:102DE000DBFF2148FFF768FE4FF0006000901C48B1
:102DF000001D01901D4802900020039024200490A3
:102E0000002005904FF48060069000200790089005
:102E10004FF4807009904FF440300A9000200B90DE
:102E20000C900D900E9069460F48FFF749FF002265
:102E30000E4924310C48FFF7F6FE01210A48FFF73E
:102E4000E7FE00210848FFF72BFE01210648FFF7A7
:102E500027FE0FB000BD0000020040000004024049
:102E600000100140A086010040640240E0100020F4
:102E70007047000010B5042000F016F840B10A2099
:102E800004F0CAFB04480068012801D100F0AAFD43
:102E9000042000F003F810BD088240420149086098
:102EA00070470000143C014001460020034A1268AC
:102EB0000A400AB1012000E000207047143C0140A4
:102EC000002123498279002A3AD00A461268036811
:102ED0009A430B461A600A1D126803689A430B1D39
:102EE0001A60027911440A6803681A430A60184A92
:102EF0000832126803689A43154B08331A601A1D8A
:102F0000126803689A43124B0C331A604279102AF4
:102F10000ED11A1F126803681A430D4B08331A604A
:102F20001A1D126803681A43094B0C331A600DE02E
:102F30000749427911440A6803681A430A6005E0A8
:102F4000027911440A6803689A430A6070470000D6
:102F5000003C014000B52DED068B85B0154890ED85
:102F6000060A10EE101A0846FDF777FF41EC180B21
:102F7000104890ED050A10EE101A0846FDF76DFF97
:102F800041EC190B0B4890ED040A10EE101A08469C
:102F9000FDF763FF41EC1A0B8DED028B8DED009B6D
:102FA00053EC1A2B04A002F047FF05B0BDEC068BD2
:102FB00000BD0000AC020020504B503A25332E32A9
:102FC000662C504B493A25312E32662C504B443AF0
:102FD00025332E32660D0A0070B505460C46012DCC
:102FE00004D0022D12D0032D30D11FE000EE104A84
:102FF000B8EEC00ADFED180A80EE201A174890EDEF
:10300000040A30EE410A80ED040A20E000EE104A86
:10301000F8EEC00A9FED101A80EE810A0F48D0ED3D
:10302000050A30EEC00A80ED050A10E000EE104AF5
:10303000B8EEC00ADFED080A80EE201A074890EDCE
:10304000060A30EE410A80ED060A00E000BF00BF2C
:10305000FFF780FF70BD00000000C842AC020020F6
:1030600070B505460C46012D04D0022D12D0032D5B
:1030700030D11FE000EE104AB8EEC00ADFED180AAA
:1030800080EE201A174890ED040A31EE000A80ED18
:10309000040A20E000EE104AF8EEC00A9FED101A74
:1030A00080EE810A0F48D0ED050A30EE200A80ED4F
:1030B000050A10E000EE104AB8EEC00ADFED080A7B
:1030C00080EE201A074890ED060A31EE000A80EDE6
:1030D000060A00E000BF00BFFFF73CFF70BD000024
:1030E0000000C842AC0200200448036840685A1C33
:1030F00040F1000001490A60486070471804002050
:1031000070B505460C46012D04D0022D12D0032DBA
:1031100030D11FE000EE104AB8EEC00ADFED180A09
:1031200080EE201A174890ED040A30EE410A80ED37
:10313000040A20E000EE104AF8EEC00A9FED101AD3
:1031400080EE810A0F48D0ED050A30EEC00A80ED0E
:10315000050A10E000EE104AB8EEC00ADFED080ADA
:1031600080EE201A074890ED060A30EE410A80ED05
:10317000060A00E000BF00BF00F0E0FC70BD0000E8
:103180000000C8422C00002070B505460C46012DF9
:1031900004D0022D12D0032D30D11FE000EE104AD2
:1031A000B8EEC00ADFED180A80EE201A174890ED3D
:1031B000040A31EE000A80ED040A20E000EE104A15
:1031C000F8EEC00A9FED101A80EE810A0F48D0ED8C
:1031D000050A30EE200A80ED050A10E000EE104AE4
:1031E000B8EEC00ADFED080A80EE201A074890ED1D
:1031F000060A31EE000A80ED060A00E000BF00BFBB
:1032000000F09CFC70BD00000000C8422C000020B3
:1032100000B52DED028B91B000F05AF98DED0F0A3B
:10322000CDED100A9DED0F0A194880ED000A052129
:1032300001A800F057F901A80FC8CDE90B23CDE98B
:1032400009019DED0A8A052105A800F04BF905A8A2
:103250000FC8CDE90F23CDE90D01BDF836004FF4BD
:10326000B47110FB01F000EE100AB8EEC00A38EE9F
:10327000008A08480169884728EE000A044880ED62
:10328000010A816C884711B0BDEC028B00BD0000C3
:103290002C0000204C03002070B505460C46012D83
:1032A00004D0022D12D0032D30D11FE000EE104AC1
:1032B000B8EEC00ADFED180A80EE201A174890ED2C
:1032C000040A30EE410A80ED040A20E000EE104AC4
:1032D000F8EEC00A9FED101A80EE810A0F48D0ED7B
:1032E000050A30EEC00A80ED050A10E000EE104A33
:1032F000B8EEC00ADFED080A80EE201A074890ED0C
:10330000060A30EE410A80ED060A00E000BF00BF69
:1033100000F062FC70BD00000000C8427C0000208C
:1033200070B505460C46012D04D0022D12D0032D98
:1033300030D11FE000EE104AB8EEC00ADFED180AE7
:1033400080EE201A174890ED040A31EE000A80ED55
:10335000040A20E000EE104AF8EEC00A9FED101AB1
:1033600080EE810A0F48D0ED050A30EE200A80ED8C
:10337000050A10E000EE104AB8EEC00ADFED080AB8
:1033800080EE201A074890ED060A31EE000A80ED23
:10339000060A00E000BF00BF00F01EFC70BD000088
:1033A0000000C8427C00002010B50248816C8847AC
:1033B00010BD00007C000020F0B50A46002100236B
:1033C000002400BF3DE0012505FA01F3156805EA78
:1033D00003049C4234D105684F000326BE40B54328
:1033E000056015794E00B5400668354305601579CE
:1033F000012D02D01579022D16D185684F000326C4
:10340000BE40B543856055794E00B540866835436A
:103410008560456801268E40B543456045689679CC
:103420008E40B6B235434560C5684F000326BE40A6
:10343000B543C560D5794E00B540C6683543C56013
:10344000491C1029BFD3F0BDF0B5002300244D075F
:10345000ED0E02FA05F3CE1000F1200555F82650C6
:103460004E07F70E0F26BE40B543CF1000F12006E1
:1034700046F82750CE1000F1200555F8265045EAB1
:103480000304CE1000F1200545F82640F0BD41832D
:103490007047018370470AB1018300E041837047A0
:1034A0001CB50121202000F0BFFE0120009000206B
:1034B0008DF8040003208DF8050001208DF8070029
:1034C00069460248FFF778FF1CBD00000014024067
:1034D000024890ED000AD0ED010A70470404002074
:1034E000012070477FB504460D46681E0E4901EB6A
:1034F0000010007B002807DD681E0C4901EB00135B
:103500000FCB84E80F007FBD294609A002F094FC90
:10351000002000900190029003909DE80F0084E845
:103520000F0000BFEFE700006011002088040020BA
:10353000646576696365202564206973206E6F7405
:103540002061206D6F746F720D0A000010B5044683
:10355000162202492046FDF777F910BD28110020F8
:1035600001480068704700006C04002001480078A2
:1035700070470000190000200148007870470000E3
:10358000180000200148007870470000B9030020AF
:1035900010B50446342202492046FDF755F910BD06
:1035A00048180020114890ED000AFBEE0E0AB4EE18
:1035B000E00AF1EE10FA04D8BBEE0E0A80ED000A24
:1035C00013E00A4890ED000AF2EE0E0AB4EEE00AAB
:1035D000F1EE10FA04DBB2EE0E0A80ED000A04E010
:1035E000024890ED000A80ED000A704704040020B4
:1035F00010B52DED048B90B07448007874490870B4
:10360000724800780978884201D002F013FCFFF775
:10361000B9FF05283ED2DFE800F0033ED1D2D30047
:103620009FED6C0A6C4880ED000A04216846FFF7A4
:1036300059FF9DE80F0008AC0FC49DED098A0421D5
:1036400004A8FFF74FFF04A80FC80CAC0FC4BDF8C7
:1036500032004FF4B47110FB01F000EE100AB8EE26
:10366000C00A38EE000AB1EE408A5C48016988471A
:1036700028EE000A584880ED010A9FED560A584886
:1036800080ED000A09F0C2FCB0F57A6F02D9012082
:103690004E49087095E0FFF71BFF8DED0E0ACDED4A
:1036A0000F0A9DED0F0A4C48D0ED000A30EE600A7B
:1036B00010EE104A2046FDF7D0FB41EC180B9FEDB1
:1036C000490B53EC102BFDF7F3FB16D2424890ED5B
:1036D000000A10EE101A0846FDF7BFFB41EC190B6B
:1036E0009FED420B53EC102BFDF71EFA41EC180B2B
:1036F000FDF7F6FB384908603CE0FFF7E9FE8DED89
:103700000E0ACDED0F0A9DED0F0A3348D0ED000AE9
:1037100030EE600A10EE104A2046FDF79EFB41ECA9
:10372000180B9FED340B53EC102BFDF7A9FB16D2B1
:10373000294890ED000A10EE101A0846FDF78DFB9F
:1037400041EC190B9FED290B53EC102BFDF78DFA73
:1037500041EC180BFDF7C4FB1F4908600AE0FFF7B6
:10376000B7FE8DED0E0ACDED0F0A9DED0F0A1A483A
:1037700080ED000A04216846FFF7B4FE9DE80F00C3
:1037800008AC0FC49DED098A042104A8FFF7AAFE26
:1037900004A80FC80CAC0FC4BDF832004FF4B471CC
:1037A00010FB01F000EE100AB8EEC00A38EE000A75
:1037B000B1EE400A084880ED010A02E001E000E0B5
:1037C00000BF00BF10B0BDEC048B10BDB9030020DA
:1037D000B8030020000000007C00002070030020DF
:1037E000CC030020000000000000F03F00000000BB
:1037F0000000E03F000000000000F0BF10B50B48E3
:1038000090ED0D0ABDEEC00A10EE100A01B20420C0
:1038100001F09AF9064890ED0D0ABDEEC00A10EECF
:10382000100A01B2052001F08FF910BD7C000020C4
:103830002C00002000BFFEE708E005F007FA04F0C6
:1038400075F804F045FC052003F0E6FEF5E710B539
:103850000446FFF785FE201AB0F5967F01D90120B6
:1038600010BD0020FCE7000000B58FB00122402110
:103870001B4802F064F91B48FFF71EF94FF0006087
:1038800000901748001D01901748029000200390F7
:103890004FF4C8700490002005904FF480600690AB
:1038A0000020079008904FF48070099000020A9061
:1038B00000200B900C900D900E9069460948FFF780
:1038C000FFF9002209490748FFF7ADF90121054832
:1038D000FFF79EF901210348FFF7E2F80FB000BDA2
:1038E0000044004088600240B407002044090020E2
:1038F00010B501F0D1FFFFF7B7FF4FF4487212493E
:10390000124803F075FF64221149124803F070FF5A
:1039100011481249886000F5C870C8604FF4C8703B
:1039200088800A48086000200882488207480C49BD
:10393000086001F10A0048600020A1F870000881C9
:1039400081F86E0010BD0000A00B0020700B00205D
:10395000C00E0020880B0020B40700205C0B002064
:10396000240F002000B585B00121880300F08CFCF5
:103970000121022000F058FC0420039000208DF863
:1039800012008DF8100003208DF8110001208DF831
:10399000130003A91248FFF70FFD0221012000F0D8
:1039A000E1FF0420019000208DF8080008208DF828
:1039B000090001208DF80A0001A8FFF781FA08200C
:1039C0008DF8000004208DF801008DF80200012020
:1039D0008DF80300684600F0DFF905B000BD000077
:1039E0000004024006480068C0430649C1F8AC0222
:1039F0000548D0F8B802C0430349C1F8B80270477F
:103A0000AC02424200004242008042421CB5012109
:103A1000702000F009FC4FF4FF70009001208DF839
:103A2000040000208DF8060003208DF80500012019
:103A30008DF8070069461548FFF7BEFC4FF400609B
:103A4000009001208DF8040000208DF8060003206E
:103A50008DF8050001208DF8070069460C48FFF736
:103A6000ABFC4FF48040009001208DF80400002052
:103A70008DF8060003208DF8050001208DF8070061
:103A800069460448FFF798FC1CBD0000001802407E
:103A9000001002400014024010B5FFF7B7FF0120EC
:103AA0000B4908600B49C1F88802094908310860D0
:103AB000091D0860091D0860091D0860091D0860CE
:103AC000091D0860044908600449C1F8B80210BD26
:103AD0008402434200004342AC0242420080424220
:103AE0001CB50121402000F09FFB4FF400500090D6
:103AF00001208DF8040000208DF8060003208DF8C9
:103B0000050069460448FFF757FC4FF4005102488E
:103B1000FFF7BDFC1CBD00000018024010B5FFF708
:103B2000DFFF4FF400510248FFF7B3FC10BD000067
:103B30000018024000BFFEE77047000000B52DED01
:103B4000068B85B0154890ED060A10EE101A08464F
:103B5000FDF783F941EC180B104890ED050A10EEC3
:103B6000101A0846FDF779F941EC190B0B4890ED56
:103B7000040A10EE101A0846FDF76FF941EC1A0B13
:103B80008DED028B8DED009B53EC1A2B04A002F0FF
:103B900053F905B0BDEC068B00BD00002C000020E1
:103BA000504B503A25332E32662C504B493A253132
:103BB0002E32662C504B443A25332E32660D0A00C5
:103BC00008B508E009F022FA0090FFF7B5FF0121DF
:103BD000684608F027FCF5E700B52DED068B85B0AB
:103BE000154890ED060A10EE101A0846FDF735F953
:103BF00041EC180B104890ED050A10EE101A08461B
:103C0000FDF72BF941EC190B0B4890ED040A10EE6F
:103C1000101A0846FDF721F941EC1A0B8DED028BC5
:103C20008DED009B53EC1A2B04A002F005F905B0B2
:103C3000BDEC068B00BD00007C000020504B503ACC
:103C400025332E32662C504B493A25312E32662CC4
:103C5000504B443A25332E32660D0A0000B5024619
:103C60000878C0F3001020B3087800F001004FF48A
:103C7000A57310FB03F0444B18800878C0F3400094
:103C800040424FF4A57310FB03F03F4B18800878B7
:103C9000C0F3C000E62310FB03F03B4B58800878CC
:103CA000C0F380004042E62310FB03F0364B5880FF
:103CB00021E0087800F00100CF2310FB03F0324B25
:103CC00018800878C0F340004042CF2310FB03F077
:103CD0002D4B18800878C0F3C000CF2310FB03F0F1
:103CE000294B58800878C0F380004042CF2310FB56
:103CF00003F0254B5880B2F9000010F1960F03DC59
:103D00006FF09500108008E0B2F90000962802DB01
:103D10009620108001E010881080B2F9020010F1A6
:103D2000960F03DC6FF09500508008E0B2F90200B6
:103D3000962802DB9620508001E05088508013487E
:103D400090ED000AB2F9020000EE900AF8EEE00AE7
:103D50009FED0F1A00EEC10A0C4880ED000A90EDAD
:103D6000010AB2F9000000EE900AF8EEE00A9FEDB9
:103D7000081A00EE810A054880ED010AFFF712FCDF
:103D8000104600F007F800BD0C04002004040020D9
:103D9000CDCCCCBC7047704770B5002100230F22FA
:103DA000C4781CB3174C246804F4E064C4F5E064E0
:103DB000C4F30721C1F10404E3B20A4144789C40F2
:103DC000E1B28478144021430C07210E0E4C057893
:103DD0006155047804F01F050124AC4005786D118D
:103DE000AD0005F1E025C5F8004109E0047804F0D4
:103DF0001F050124AC40054D0678761145F8264094
:103E000070BD00000CED00E000E400E080E100E0A7
:103E100002490143024A1160704700000000FA05A0
:103E20000CED00E010B500203A4908703A480078DF
:103E30003A49087000203A4908703A4800783A49EF
:103E40000870062003F056FD0446B4F5486F05DD02
:103E5000002031490870354908602EE0B4F5487FEC
:103E600006DDB4F57A7F03DA01202B49087024E0DF
:103E7000B4F5C86F06DDB4F5E16F03DA0220264918
:103E800008701AE0B4F52F6F07DD40F61C4084423D
:103E900003DA0320204908700FE040F698008442BE
:103EA00006DDB4F5166F03DA04201B49087004E040
:103EB0000A2C02DA052018490870174800781749BB
:103EC0000978884206D009F0A1F819490860012054
:103ED0001049087009F09AF815490968401A134901
:103EE000086008460068322803D90B4800780D495D
:103EF00008700C4800780C490978884206D009F00F
:103F000085F80B49086001200549087005480078CC
:103F100010BD000059040020570400205804002060
:103F2000220400202004002021040020240400207A
:103F30006004002000B58DB00121084600F074F93E
:103F400040200B9003208DF8300000208DF83300C6
:103F50000BA91D48FFF730FA0121080200F094F97F
:103F60000121080200F0A0F900214FF4807000F058
:103F70009BF90120FDF736FC002007900A9009907C
:103F80004FF48030089007A8FDF77AFB00200190DD
:103F90008DF8080001208DF809000020039005909D
:103FA00001208DF8180001A90848FDF78FFB0023B8
:103FB000012206210548FDF7B3FB01210348FDF767
:103FC00053FB0DB000BD0000000002400020014086
:103FD00010B5FFF727FF34480078052862D2DFE8E4
:103FE00000F00310283A4F0004F0A8FD04F05CFC38
:103FF0002E48007820B105F06FF9002005F060F838
:1040000050E0294800782A490978884206D005F00E
:104010001FF805F061F9002005F052F823480078F8
:1040200030B124480078052802D100201E490870CC
:1040300038E006F0BBFE05F04FF9002005F040F82F
:104040001A48007830B11B480078052802D10020BA
:104050001549087026E01548007830B106F0BEFD1D
:1040600005F03AF9002005F02BF81048007830B13F
:1040700010480078052802D100200B49087011E093
:1040800006F0B4F805F028F9002005F019F8074803
:10409000007830B107480078052802D10020024995
:1040A000087000BF00BF10BD520400202204002091
:1040B000530400202004002008B508E008F0A6FF03
:1040C0000090FFF785FF0521684608F0ABF9F5E79A
:1040D00090ED020A80ED030A90ED000AD0ED010A8E
:1040E00030EE600A80ED020A90ED080AD0ED020A77
:1040F00030EE200A80ED080A90ED080AD0ED0B0A98
:10410000F1EE600AB4EEE00AF1EE10FA06D290ED9C
:104110000B0AB1EE400A80ED080A0CE090ED080AA7
:10412000D0ED0B0AB4EEE00AF1EE10FA03DD90EDEB
:104130000B0A80ED080A90ED040AD0ED020A20EE89
:10414000200AD0ED050A90ED081A00EE810AD0EDA4
:10415000020A90ED031A70EEC10A90ED061A01EE04
:10416000200A80ED0D0A90ED0D0AD0ED0E0AB4EE96
:10417000E00AF1EE10FA04DD90ED0E0A80ED0D0A72
:1041800010E090ED0D0AD0ED0E0AF1EE600AB4EEEB
:10419000E00AF1EE10FA05D290ED0E0AB1EE400AF7
:1041A00080ED0D0A704700009FED0C0A80ED070AB4
:1041B0009FED0A0A80ED080A9FED080A80ED090AC2
:1041C0009FED060A80ED020A9FED040A80ED030AC6
:1041D0009FED020A80ED0D0A70470000000000000C
:1041E00010B500F007F83C210148FFF752F910BD67
:1041F000001C02401CB50121802000F015F83C2075
:10420000009001208DF8040000208DF806000320A6
:104210008DF8050001208DF8070069460148FFF779
:10422000CBF81CBD001C024029B1064A12680243AB
:10423000044B1A6004E0034A12688243014B1A607F
:10424000704700003038024029B1064A1268024324
:10425000044B1A6004E0034A12688243014B1A605F
:10426000704700004038024029B1064A12680243F4
:10427000044B1A6004E0034A12688243014B1A603F
:10428000704700002038024029B1064A12680243F4
:10429000044B1A6004E0034A12688243014B1A601F
:1042A000704700004438024029B1064A12680243B0
:1042B000044B1A6004E0034A12688243014B1A60FF
:1042C0007047000024380240F0B50021002200248D
:1042D000022500260223324F3F6807F00C0121B16E
:1042E000042905D0082937D105E02E4F076036E0B4
:1042F0002D4F076033E02A4F3F1F3F68C7F38056BA
:10430000274F3F1F3F6807F03F036EB1264FB7FBB3
:10431000F3F7DFF88CC0ACF1040CDCF800C0CCF390
:10432000881C07FB0CF40CE01E4FB7FBF3F7DFF81B
:1043300070C0ACF1040CDCF800C0CCF3881C07FBA7
:104340000CF4174F3F1F3F68C7F301477F1C7D00E8
:10435000B4FBF5F7076002E0124F076000BF00BF33
:104360000F4F3F6807F0F0010909104F7A5C0768AA
:10437000D74047600A4F3F6807F4E051890A0B4F66
:104380007A5C4768D7408760054F3F6807F4604113
:10439000490B064F7A5C4768D740C760F0BD000004
:1043A000083802400024F400001BB7001A00002067
:1043B0000168491C0160D0E90012914201DB4168AB
:1043C000016090ED000AF8EEC00A90ED010AB8EE27
:1043D000C00A80EE801A80ED021A90ED020A704742
:1043E000416070470146D1E90002904201DB0120A3
:1043F00070470020FCE700210160704701607047B2
:104400004160704700B58DB001A8FFF79FF81822F2
:1044100001A907A8FCF718FA00F05CFBFFF760F8A9
:10442000012802D0032809D103E007A800F00AF808
:1044300005E00CA90AA8FFF711FC00E000BF00BFCF
:104440000DB000BD10B50446B4F9060000EE100A28
:10445000B8EEC00ADFED260A20EE200ABDEEC00A43
:1044600010EE100A00B223490880B4F9040000EEEF
:10447000100AB8EEC00ADFED1E0A20EE200ABDEEDB
:10448000C00A10EE100A00B248801B4890ED000AE6
:10449000B4F9020000EE900AF8EEE00A9FED171A58
:1044A00000EE810A144880ED000A90ED010AB4F98B
:1044B000000000EE900AF8EEE00A9FED111A00EEFF
:1044C000810A0D4880ED010AFFF76CF8E07AC0F32D
:1044D000800040B1B2EE040A074880ED000A9FED6B
:1044E000090A80ED010A204600F00EF810BD000018
:1044F0009A99993E0C040020040400206F12833B1B
:104500006F12033B0000000010B50446A07A00F0D3
:10451000010068B1002000F03BFD00F00DFE00201E
:1045200000F0D4FD4FF400511348FEF7B0FF22E035
:10453000A07AC0F3400068B1012000F029FD4FF4DB
:1045400000510D48FEF7A5FF00F0F0FD002000F03F
:10455000BDFD10E0A07AC0F3800060B1002000F043
:1045600017FD00F0E3FD012000F0B0FD4FF4005115
:104570000148FEF78EFF10BD0018024008B550E05C
:1045800008F044FD0090FEF7F7FF08B325480078D7
:1045900030B90120234908700C2000F09DFD09E08E
:1045A00020480078012805D100201E4908701520F8
:1045B00000F092FD1C480068C0431C49C1F8AC02E1
:1045C0001B48D0F8B802C0431949C1F8B8021BE033
:1045D000FEF7CCFF60B10C2000F07EFD00201249F8
:1045E00008601348D0F8B802C043124908600BE0D5
:1045F000152000F071FD01200B4908600C48D0F82F
:10460000B802C0430B49086008F000FD0446FFF7FC
:104610001EF908B900F0B2FD4FF4FA71684607F0D0
:1046200001FFADE7FC030020AC0242420000424221
:1046300000804242B882424200B587B00121022088
:10464000FFF7F2FD4FF4C060059001208DF81800CF
:1046500000208DF819008DF81A008DF81B0005A9AF
:104660003B48FEF7A9FE01210220FFF7DDFD0820EF
:10467000059002208DF8180003208DF81900002005
:104680008DF81A008DF81B0005A93148FEF794FE3D
:10469000052203212E48FEF7D7FE01210846FFF729
:1046A000C3FD8020059002208DF8180003208DF8AE
:1046B000190000208DF81A008DF81B0005A9254867
:1046C000FEF77AFE052207212248FEF7BDFE0121F2
:1046D0000803FFF7D9FD01210803FFF7E5FD0021DD
:1046E0004FF48050FFF7E0FD00211B4800F0DAF89E
:1046F0004FF44040ADF800004FF48270ADF8020076
:104700000020ADF80400ADF80600ADF808004FF445
:104710000070ADF80A000020ADF80C00ADF80E00F6
:104720000720ADF8100069460B4800F0D5F80121CC
:10473000094800F0ABF80021074800F007F9012113
:10474000054800F0AFF8FF2000F008F807B000BD02
:1047500000040240000002400030014010B5044651
:1047600000BF0221054800F0A9F80028F9D0214631
:10477000024800F0AFF8002010BD000000300140FA
:1047800000B587B001212020FFF74EFD012108056B
:10479000FFF77AFD012240213A48FEF77CFE4020D7
:1047A000059001208DF8180000208DF81A000320D4
:1047B0008DF8190001208DF81B0005A93148FEF77E
:1047C000FBFD01212020FFF72FFD01210805FFF748
:1047D0005BFD4FF46070059002208DF818000020FA
:1047E0008DF81A0003208DF8190001208DF81B00A8
:1047F00005A92448FEF7E0FD052207212148FEF720
:1048000023FE052208211F48FEF71EFE052209216E
:104810001C48FEF719FE01210805FFF745FD0021A0
:104820004FF48010FFF740FD0020ADF800004FF47A
:104830008270ADF802000020ADF80400ADF806006B
:10484000ADF808004FF40070ADF80A003020ADF864
:104850000C000020ADF80E000720ADF810006946EE
:10486000094800F039F80121074800F01BF8FF2043
:1048700000F050F8012240210248FEF70CFE07B07C
:1048800000BD0000001402400050014021B1028828
:1048900042F40052028004E002884DF6FF731A4091
:1048A0000280704721B1028842F04002028004E099
:1048B00002884FF6BF731A400280704702460020FC
:1048C00013890B400BB1012000E000207047014626
:1048D000888970478181704710B50022028802F4F0
:1048E00041520B884C8823438C882343CC88234334
:1048F0000C8923434C8923438C892343CC8923434C
:104900001A430280838B4FF2FF74234083830B8A08
:10491000038210BD10B5044600BF02210A48FFF70C
:10492000CDFF0028F9D021460748FFF7D3FF00BF8D
:1049300001210548FFF7C2FF0028F9D00248FFF720
:10494000C6FFC0B210BD00000050014021B18288F6
:1049500042F01002828004E082884FF6EF731A4022
:104960008280704730B500228B071C0F0F2303FA9B
:1049700004F20B4B8C1053F824309343084C8D10E9
:1049800044F8253023468C1053F824308C07240F2C
:1049900000FA04F42343024C8D1044F8253030BD56
:1049A0000838014010B586B00446601E404901EB4E
:1049B0000010007B002878DD601E01EB00104068CD
:1049C000019000208DF80C008DF80D0008208DF866
:1049D0000E00601E01EB00104068A0F2FF1020B333
:1049E000012803D0B0F5807F5DD13DE0601E3049E5
:1049F00001EB0010007801280BD12E480168CDF89A
:104A00000F104068CDF8130001A92B48FDF788FE70
:104A10000AE02A480168CDF80F104068CDF813006D
:104A200001A92748FDF77CFE3DE0601E204901EB0F
:104A30000010007801280BD122480168CDF80F1032
:104A40004068CDF8130001A91B48FDF769FE0AE094
:104A50001D480168CDF80F104068CDF8130001A97A
:104A60001748FDF75DFE1EE0601E114901EB0010C6
:104A7000007801280BD115480168CDF80F10406867
:104A8000CDF8130001A90C48FDF74AFE0AE01048D2
:104A90000168CDF80F104068CDF8130001A908484F
:104AA000FDF73EFE00BF00BF00BF06B010BD000016
:104AB00060110020480500200064004060050020CF
:104AC00000680040500500206805002058050020BF
:104AD0007005002000B591B0194800781949087098
:104AE00001A8FEF733FD182201A90BA8FBF7ACFEC5
:104AF0000BA807C808AB07C39DF82B0007909DF8CB
:104B00001C0000F0010010B101200D49087001A83F
:104B1000FEF71CFD182201A90BA8FBF795FE0BA8B8
:104B200007C808AB07C39DF82B0007909DF81C0031
:104B3000C0F3400010B103200149087011B000BD5E
:104B4000000400200104002070B504460D46601EDC
:104B5000F84901EB0010007B00286FDD601E01EBBF
:104B60000010007B072853D2DFE800F05204111E2A
:104B70002B384500F048854201DC054606E042F24C
:104B80001070854201DB054600E000BF41E015F5ED
:104B9000804F01DCE94D06E0B5F5804F02DB4FF4B4
:104BA000804500E000BF34E0E548854201DC054671
:104BB00006E047F23050854201DB054600E000BFC9
:104BC00027E0E048854201DC054606E047F2481050
:104BD000854201DB054600E000BF1AE0DA48854265
:104BE00001DC054606E041F28830854201DB0546DE
:104BF00000E000BF0DE015F5004F01DCD34D06E0ED
:104C000047F6FF70854201DB054600E000BF00E08B
:104C100000BF00BF601EC74901EB001000780128EB
:104C20007ED1601E01EB00104068A0F2FF10D8B1E9
:104C3000012804D0B0F5807F15D178E094E1C5F368
:104C40000721601EBB4A02EB001040784000801E26
:104C5000BF4A1154601EB74A02EB00104078400072
:104C6000401EBB4A15549DE0601EB24901EB001086
:104C7000007B012805D0601E01EB0010007B02289C
:104C800016D1C5F30721601EAA4A02EB0010407836
:104C9000001F4000801EAF4A1154601EA54A02EB5F
:104CA00000104078001F4000401EAA4A15543DE005
:104CB000601EA04901EB0010007B032805D0601E98
:104CC00001EB0010007B032814D1C5F30721601EFF
:104CD000984A02EB001040784000801E9D4A115413
:104CE000601E944A02EB001040784000401E994A32
:104CF00015541BE0601E8F4901EB0010007B042857
:104D000014D1C5F30721601E8A4A02EB00104078D7
:104D1000904A02F81010601E864A02EB001000E074
:104D200041E040784000401C8A4A15543AE0601E39
:104D3000804901EB0010007B032816D1C5F3072141
:104D4000601E7C4A02EB00104078001F4000801E6D
:104D5000814A1154601E774A02EB00104078001F10
:104D60004000401E7C4A15541BE0601E714901EB57
:104D70000010007B042814D1C5F30721601E6D4A82
:104D800002EB00104078001F734A02F81010601EFA
:104D9000684A02EB00104078001F4000401C6E4A39
:104DA000155400BFE4E0601E624901EB001000787A
:104DB0000228F7D1601E01EB00104068A0F2FF103E
:104DC000D0B1012803D0B0F5807F14D175E0C5F3D0
:104DD0000721601E574A02EB001040784000801EF9
:104DE0005E4A1154601E534A02EB001040784000A6
:104DF000401E5A4A15549BE0601E4E4901EB0010BC
:104E0000007B012805D0601E01EB0010007B02280A
:104E100016D1C5F30721601E464A02EB0010407808
:104E2000001F4000801E4E4A1154601E414A02EB92
:104E300000104078001F4000401E494A15543BE0D6
:104E4000601E3C4901EB0010007B032805D0601E6A
:104E500001EB0010007B032814D1C5F30721601E6D
:104E6000344A02EB001040784000801E3C4A115446
:104E7000601E304A02EB001040784000401E384A65
:104E8000155419E0601E2B4901EB0010007B04282B
:104E900012D1C5F30721601E264A02EB00104078AC
:104EA0002F4A02F81010601E224A02EB00104078D0
:104EB0004000401C2A4A15543AE0601E1D4901EB8F
:104EC0000010007B032816D1C5F30721601E194A84
:104ED00002EB00104078001F4000801E214A115450
:104EE000601E144A02EB00104078001F4000401E74
:104EF0001C4A15541BE0601E0E4901EB0010007B9C
:104F0000042814D1C5F30721601E0A4A02EB0010E1
:104F10004078001F134A02F81010601E054A02EB89
:104F200000104078001F4000401C0E4A155400BF7E
:104F30001EE0000060110020F0D8FFFF00C0FFFF5E
:104F4000D08AFFFFB88EFFFF78ECFFFF0080FFFFE5
:104F5000480500205005002058050020600500206D
:104F60006805002070050020214602A000F064FFC3
:104F700070BD0000646576696365202564206973EF
:104F8000206E6F742061206D6F746F720D0A0000C7
:104F90000149087070470000BB0300200CB50020D9
:104FA000019000904148006840F480303F4908601B
:104FB00000BF3E48006800F4003000900198401C9B
:104FC0000190009818B90198B0F5A04FF1D1374879
:104FD000006800F4003010B10120009001E00020D2
:104FE00000900098012860D130484030006840F0BF
:104FF00080502E49403108602D48006840F4404000
:105000002B490860294808300068284908310860A1
:105010000846006840F4004008600846006840F414
:10502000A05008602348091F0860081F006840F06E
:105030008070091F086000BF1C48006800F0007005
:105040000028F9D01A48006840F4803018490860F8
:1050500000BF1748406800F480300028F9D0144899
:10506000006840F400301249086000BF10484068F2
:1050700000F400300028F9D040F205700E490860B5
:105080000A480830006820F0030008490831086029
:105090000846006840F00200086000BF034808307E
:1050A000006800F00C000828F8D10CBD0038024060
:1050B000007000400C544007003C0240024909784F
:1050C00009B1014908707047B9030020014908700F
:1050D00070470000BC030020152803D10021094AB5
:1050E00011600DE0084931F81010064A083A1160C5
:1050F000054A32F8101001EBD1725210014B1A60C0
:105100007047000034180040A0D400080DE00C20C7
:10511000FFF7E2FF4FF47A7002F07EFA1520FFF7F6
:10512000DBFF4FF47A7002F077FAF0E701200149D3
:1051300008707047BA0300200020014908707047CA
:10514000BA030020042808D14FF0E021096941F09A
:1051500004014FF0E022116107E04FF0E0210969FE
:1051600021F004014FF0E0221161704710B507F003
:105170003DFF012801D007F02BFC10BD00200149A4
:10518000087070471800002010B51548006840F4FA
:105190007000134908601348006840F0010011498D
:1051A000086000200F49083108600E4800680E4969
:1051B00008400C4908600D48091D0860081F006878
:1051C00020F48020091F0860002006490C31086087
:1051D000FFF7E4FE4FF0006001498039086010BD20
:1051E00088ED00E000380240FFFFF6FE103000249A
:1051F00010B501210A4800F083F801280AD10949B5
:10520000086980470021064800F0DDF86421044861
:1052100000F0D7F80121024800F057F810BD000057
:1052200000080040B406002010B50121054800F038
:1052300067F808B1FDF758FF0121024800F045F872
:1052400010BD0000001000401FB501211020FEF726
:10525000FBFF36208DF8000002208DF801000020B1
:105260008DF8020001208DF803006846FEF794FDDA
:105270005320ADF804000020ADF80600ADF80C0096
:105280006320029001A9084800F0A0F80121064817
:1052900000F01EF801221146034800F042F80121F7
:1052A000014800F00FF81FBD0010004021B1028836
:1052B00042F08002028004E002884FF67F731A40B9
:1052C00002807047CA4302827047CA430282704715
:1052D00021B1028842F00102028004E002884FF608
:1052E000FE731A40028070470146486A70470246C2
:1052F0000020138A0B400BB1012000E00020704712
:1053000030B50246002000230024158A05EA010377
:10531000958905EA010413B10CB1012000E00020D9
:1053200030BD1AB183890B43838102E083898B43AB
:105330008381704770B5002400220023058C4FF64E
:10534000FE7635400584028C8388048B4FF68F757A
:105350002C40B51E2C400D882C43751E2A408D898B
:105360002A434D882A43104DA84202D00F4DA8422F
:1053700013D14FF6F7752A40CD892A434FF6FB75B6
:105380002A408D882A434FF6FF652B404FF6FF5584
:105390002B400D8A2B434D8A2B43838004838D68D9
:1053A0004563028470BD000000000140000401401C
:1053B0000A460021018B4FF6F77319401143018310
:1053C0007047C16270474162704700000022028846
:1053D000184B98420ED0184B98420BD0B0F1804F2A
:1053E00008D0164B984205D0154B984202D0154B69
:1053F000984204D14FF68F731A404B881A43124BD0
:10540000984207D0114B984204D04FF6FF431A4000
:105410000B891A4302804B68C3620B880385054BD6
:10542000984202D0044B984201D18B7A0386012323
:1054300083827047000001400004014000040040E6
:1054400000080040000C0040001000400014004024
:105450001CB506F09BFE2448022100238022CDE9E2
:10546000001022A1244807F091FD244802210023C6
:105470008022CDE9001022A1244807F087FD2448AE
:10548000022100238022CDE9001022A1254807F047
:105490007DFD2548022100238022CDE9001023A1B3
:1054A000254807F073FD2548022100238022CDE91D
:1054B000001023A1264807F069FD26480221002399
:1054C0000A02CDE9001024A1264807F05FFD264816
:1054D000022100233222CDE9001024A1274807F041
:1054E00055FD06F07DFE1CBDDC030020434D445FEE
:1054F0005461736B00000000E7280008E4030020FB
:10550000494D555F5461736B000000003938000845
:10551000E8030020436F6E74726F6C5F5461736BAD
:1055200000000000F5290008E003002043414E5F21
:105530005461736B0000000009270008F00300208D
:105540004D6F6E69746F725F5461736B0000000081
:10555000C13B0008F40300204F4C45445F54617385
:105560006B000000B9400008F803002052756E6E11
:10557000696E675F5461736B000000007D45000831
:105580007FB504460D4601210420FEF75DFEADF80F
:1055900000500020ADF802000194ADF80800694603
:1055A0000D48FFF713FF012211460B48FFF7B9FE24
:1055B00001210948FFF78CFE1E208DF80C00032006
:1055C0008DF80D008DF80E0001208DF80F0003A856
:1055D000FEF7E2FB7FBD00000008004010B540F27E
:1055E00025511D4800F02CFB10B31B4800F0E2FBD6
:1055F000C4B21A48008800F40040C8B917480088AF
:1056000000F4804060B10A2C03D0002013490880C8
:1056100020E01248008840F400401049088019E05A
:105620000D2C06D10D48008840F480400B490880BD
:1056300010E00A480088C0F30D0009490C540748DF
:105640000088401C0549088008460088C72801DDFD
:105650000020088010BD0000007800407A0500207E
:105660008812002010B540F225511D4800F0E8FADC
:1056700010B31B4800F09EFBC4B21A48008800F427
:105680000040C8B91748008800F4804060B10A2C77
:1056900003D000201349088020E01248008840F41D
:1056A00000401049088019E00D2C06D10D480088F3
:1056B00040F480400B49088010E00A480088C0F39D
:1056C0000D0009490C5407480088401C0549088012
:1056D00008460088C72801DD0020088010BD0000B2
:1056E000007C0040800500205013002010B588B0D9
:1056F000044601211020FEF797FD0121C807FEF79F
:10570000A3FD082200212248FDF79EFE0822012168
:105710001F48FDF799FE0320069002208DF81C001B
:1057200003208DF81D0000208DF81E0001208DF84B
:105730001F0006A91648FDF73FFE02940020ADF8B1
:105740000C00ADF80E00ADF81000ADF814000C2000
:10575000ADF8120002A90F4800F0C2FA01210D486D
:1057600000F0E1F9012240F225510A4800F092FAD6
:1057700053208DF8040003208DF805008DF80600F5
:1057800001208DF8070001A8FEF706FB08B010BD48
:1057900000100240007C004010B540F22551304816
:1057A00000F04EFA18B12E4800F004FB57E040F22A
:1057B00024412B4800F044FA002850D0284800F03B
:1057C000F9FA2848FDF73FFA20BB00212548FDF7EC
:1057D00067F92448FDF733FAC0F124002249088014
:1057E00024212048FDF798FA1E48006840F4002064
:1057F0001C4908601D491B48FDF71EF90121194885
:10580000FDF74EF918480088122828D1184804F0EE
:1058100043FC24E000211348FDF742F91148FDF74D
:105820000EFAC0F124001049088024210D48FDF72C
:1058300073FA0C48006820F400200A4908600B49FC
:105840000848FDF7F9F801210648FDF729F906484F
:105850000088122803D10648243004F01DFC10BD36
:10586000001001404064024070040020000030102D
:10587000E010002010B540F22441054800F0E0F9A6
:1058800028B1034800F096FA024801F00BFF10BD62
:10589000004400405C0B002000B587B02C4800F0AD
:1058A00057F901212B48FEF7BFFC01214804FEF700
:1058B000CBFC072206212848FDF7C6FD072205215B
:1058C0002548FDF7C1FD6020059002208DF81800E5
:1058D00000208DF81A0003208DF8190000208DF8A3
:1058E0001B0005A91C48FDF767FD4FF4E13001904E
:1058F0000020ADF80800ADF80A00ADF80C000C204F
:10590000ADF80E000020ADF8100001A9104800F01D
:10591000E7F9012240F224410D4800F0BBF92620AE
:105920008DF8000002208DF8010001208DF80200A2
:105930008DF803006846FEF72FFA01224021044843
:1059400000F0FDF80121024800F0EDF807B000BDBD
:105950000044004008002000000C024010B540F256
:1059600025511D4800F06CF910B31B4800F022FAD5
:10597000C4B21A48008800F40040C8B9174800882B
:1059800000F4804060B10A2C03D000201349088045
:1059900020E01248008840F400401049088019E0D7
:1059A0000D2C06D10D48008840F480400B4908803A
:1059B00010E00A480088C0F30D0009490C5407485C
:1059C0000088401C0549088008460088C72801DD7A
:1059D0000020088010BD000000480040780500202D
:1059E000C011002010B540F22771464800F028F998
:1059F000A8B145480068FAF7B4FE48B942480068C3
:105A0000FAF7C1FD044621463E4800F0D8F977E098
:105A1000002240F227713B4800F03CF970E040F270
:105A20002551384800F00CF9002869D0354800F0BD
:105A3000C1F9C4B23548007809285BD2DFE800F02C
:105A400005111D252D353D4551000A2C05D12F4846
:105A50000078401C2D49087002E000202B49087096
:105A60004CE00D2C05D129480078401C27490870CE
:105A700002E000202549087040E024480078401CDE
:105A8000224908702248047038E020480078401C01
:105A90001E4908701E48447030E01C480078401CC5
:105AA0001A4908701A48847028E018480078401C89
:105AB000164908701648C47020E014480078401C4D
:105AC000124908701248047118E00D2C05D10F48D6
:105AD0000078401C0D49087002E000200B49087056
